{
  "_format": "hh-sol-artifact-1",
  "contractName": "FileRegistry",
  "sourceName": "contracts/FileRegistry.sol",
  "abi": [
    {
      "inputs": [],
      "stateMutability": "nonpayable",
      "type": "constructor"
    },
    {
      "anonymous": false,
      "inputs": [
        {
          "indexed": true,
          "internalType": "string",
          "name": "fileId",
          "type": "string"
        },
        {
          "indexed": true,
          "internalType": "address",
          "name": "accessor",
          "type": "address"
        },
        {
          "indexed": false,
          "internalType": "uint256",
          "name": "validUntil",
          "type": "uint256"
        },
        {
          "indexed": false,
          "internalType": "uint256",
          "name": "maxDownloads",
          "type": "uint256"
        }
      ],
      "name": "AccessGranted",
      "type": "event"
    },
    {
      "anonymous": false,
      "inputs": [
        {
          "indexed": true,
          "internalType": "string",
          "name": "fileId",
          "type": "string"
        },
        {
          "indexed": true,
          "internalType": "address",
          "name": "accessor",
          "type": "address"
        },
        {
          "indexed": false,
          "internalType": "string",
          "name": "action",
          "type": "string"
        },
        {
          "indexed": false,
          "internalType": "uint256",
          "name": "timestamp",
          "type": "uint256"
        },
        {
          "indexed": false,
          "internalType": "bool",
          "name": "isSuccess",
          "type": "bool"
        }
      ],
      "name": "AccessLogged",
      "type": "event"
    },
    {
      "anonymous": false,
      "inputs": [
        {
          "indexed": true,
          "internalType": "string",
          "name": "fileId",
          "type": "string"
        },
        {
          "indexed": true,
          "internalType": "address",
          "name": "accessor",
          "type": "address"
        }
      ],
      "name": "AccessRevoked",
      "type": "event"
    },
    {
      "anonymous": false,
      "inputs": [
        {
          "indexed": true,
          "internalType": "address",
          "name": "triggeredBy",
          "type": "address"
        },
        {
          "indexed": false,
          "internalType": "bool",
          "name": "lockedState",
          "type": "bool"
        }
      ],
      "name": "EmergencyLockTriggered",
      "type": "event"
    },
    {
      "anonymous": false,
      "inputs": [
        {
          "indexed": true,
          "internalType": "string",
          "name": "fileId",
          "type": "string"
        },
        {
          "indexed": false,
          "internalType": "string",
          "name": "cid",
          "type": "string"
        },
        {
          "indexed": false,
          "internalType": "string",
          "name": "fileHash",
          "type": "string"
        },
        {
          "indexed": true,
          "internalType": "address",
          "name": "owner",
          "type": "address"
        },
        {
          "indexed": false,
          "internalType": "uint8",
          "name": "threatScore",
          "type": "uint8"
        }
      ],
      "name": "FileRegistered",
      "type": "event"
    },
    {
      "anonymous": false,
      "inputs": [
        {
          "indexed": true,
          "internalType": "string",
          "name": "fileId",
          "type": "string"
        },
        {
          "indexed": true,
          "internalType": "address",
          "name": "previousOwner",
          "type": "address"
        },
        {
          "indexed": true,
          "internalType": "address",
          "name": "newOwner",
          "type": "address"
        }
      ],
      "name": "OwnershipTransferred",
      "type": "event"
    },
    {
      "inputs": [],
      "name": "contractOwner",
      "outputs": [
        {
          "internalType": "address",
          "name": "",
          "type": "address"
        }
      ],
      "stateMutability": "view",
      "type": "function"
    },
    {
      "inputs": [
        {
          "internalType": "string",
          "name": "fileId",
          "type": "string"
        }
      ],
      "name": "getFile",
      "outputs": [
        {
          "internalType": "string",
          "name": "cid",
          "type": "string"
        },
        {
          "internalType": "string",
          "name": "fileHash",
          "type": "string"
        },
        {
          "internalType": "address",
          "name": "owner",
          "type": "address"
        },
        {
          "internalType": "uint256",
          "name": "timestamp",
          "type": "uint256"
        },
        {
          "internalType": "uint8",
          "name": "threatScore",
          "type": "uint8"
        },
        {
          "internalType": "string",
          "name": "signature",
          "type": "string"
        }
      ],
      "stateMutability": "view",
      "type": "function"
    },
    {
      "inputs": [
        {
          "internalType": "address",
          "name": "user",
          "type": "address"
        }
      ],
      "name": "getUserOwnedFiles",
      "outputs": [
        {
          "internalType": "string[]",
          "name": "",
          "type": "string[]"
        }
      ],
      "stateMutability": "view",
      "type": "function"
    },
    {
      "inputs": [
        {
          "internalType": "string",
          "name": "fileId",
          "type": "string"
        },
        {
          "internalType": "address",
          "name": "accessor",
          "type": "address"
        },
        {
          "internalType": "uint256",
          "name": "durationSeconds",
          "type": "uint256"
        },
        {
          "internalType": "uint256",
          "name": "maxDownloads",
          "type": "uint256"
        }
      ],
      "name": "grantAccess",
      "outputs": [],
      "stateMutability": "nonpayable",
      "type": "function"
    },
    {
      "inputs": [
        {
          "internalType": "string",
          "name": "fileId",
          "type": "string"
        },
        {
          "internalType": "string",
          "name": "cid",
          "type": "string"
        },
        {
          "internalType": "string",
          "name": "fileHash",
          "type": "string"
        },
        {
          "internalType": "uint8",
          "name": "threatScore",
          "type": "uint8"
        },
        {
          "internalType": "string",
          "name": "signature",
          "type": "string"
        }
      ],
      "name": "registerFile",
      "outputs": [],
      "stateMutability": "nonpayable",
      "type": "function"
    },
    {
      "inputs": [
        {
          "internalType": "string",
          "name": "fileId",
          "type": "string"
        },
        {
          "internalType": "address",
          "name": "accessor",
          "type": "address"
        }
      ],
      "name": "revokeAccess",
      "outputs": [],
      "stateMutability": "nonpayable",
      "type": "function"
    },
    {
      "inputs": [
        {
          "internalType": "bool",
          "name": "state",
          "type": "bool"
        }
      ],
      "name": "setEmergencyLock",
      "outputs": [],
      "stateMutability": "nonpayable",
      "type": "function"
    },
    {
      "inputs": [],
      "name": "systemEmergencyLock",
      "outputs": [
        {
          "internalType": "bool",
          "name": "",
          "type": "bool"
        }
      ],
      "stateMutability": "view",
      "type": "function"
    },
    {
      "inputs": [
        {
          "internalType": "string",
          "name": "fileId",
          "type": "string"
        },
        {
          "internalType": "address",
          "name": "newOwner",
          "type": "address"
        }
      ],
      "name": "transferOwnership",
      "outputs": [],
      "stateMutability": "nonpayable",
      "type": "function"
    },
    {
      "inputs": [
        {
          "internalType": "string",
          "name": "fileId",
          "type": "string"
        },
        {
          "internalType": "address",
          "name": "accessor",
          "type": "address"
        }
      ],
      "name": "verifyAccess",
      "outputs": [
        {
          "internalType": "bool",
          "name": "",
          "type": "bool"
        }
      ],
      "stateMutability": "nonpayable",
      "type": "function"
    }
  ],
  "bytecode": "0x60806040526000600360006101000a81548160ff02191690831515021790555034801561002b57600080fd5b5033600360016101000a81548173ffffffffffffffffffffffffffffffffffffffff021916908373ffffffffffffffffffffffffffffffffffffffff16021790555061317f8061007c6000396000f3fe608060405234801561001057600080fd5b506004361061009d5760003560e01c8063ce606ee011610066578063ce606ee014610158578063d545d56314610176578063d6807bef14610192578063dfe0b5fe146101ae578063e0876aa8146101ca5761009d565b806254d32f146100a2578063638442ba146100c0578063878b6922146100f05780639f75c9e014610120578063c0e793c21461013c575b600080fd5b6100aa6101ff565b6040516100b79190611c5d565b60405180910390f35b6100da60048036038101906100d59190611cea565b610212565b6040516100e79190611e69565b60405180910390f35b61010a60048036038101906101059190611fc0565b61032a565b6040516101179190611c5d565b60405180910390f35b61013a60048036038101906101359190612048565b610a1f565b005b61015660048036038101906101519190611fc0565b610b1a565b005b610160610eab565b60405161016d9190612084565b60405180910390f35b610190600480360381019061018b91906120d8565b610ed1565b005b6101ac60048036038101906101a791906121f9565b6112a4565b005b6101c860048036038101906101c39190611fc0565b6115c7565b005b6101e460048036038101906101df919061227c565b61191c565b6040516101f69695949392919061232d565b60405180910390f35b600360009054906101000a900460ff1681565b6060600260008373ffffffffffffffffffffffffffffffffffffffff1673ffffffffffffffffffffffffffffffffffffffff168152602001908152602001600020805480602002602001604051908101604052809291908181526020016000905b8282101561031f578382906000526020600020018054610292906123d2565b80601f01602080910402602001604051908101604052809291908181526020018280546102be906123d2565b801561030b5780601f106102e05761010080835404028352916020019161030b565b820191906000526020600020905b8154815290600101906020018083116102ee57829003601f168201915b505050505081526020019060010190610273565b505050509050919050565b6000600360009054906101000a900460ff16156103b1578173ffffffffffffffffffffffffffffffffffffffff1683604051610366919061243f565b60405180910390207f72c9a8e381eaa01836f5dbbf633268cfcf158e238635ad80ba54b27deb413ade4260006040516103a09291906124a2565b60405180910390a360009050610a19565b600080846040516103c2919061243f565b90815260200160405180910390206040518060e00160405290816000820180546103eb906123d2565b80601f0160208091040260200160405190810160405280929190818152602001828054610417906123d2565b80156104645780601f1061043957610100808354040283529160200191610464565b820191906000526020600020905b81548152906001019060200180831161044757829003601f168201915b5050505050815260200160018201805461047d906123d2565b80601f01602080910402602001604051908101604052809291908181526020018280546104a9906123d2565b80156104f65780601f106104cb576101008083540402835291602001916104f6565b820191906000526020600020905b8154815290600101906020018083116104d957829003601f168201915b505050505081526020016002820160009054906101000a900473ffffffffffffffffffffffffffffffffffffffff1673ffffffffffffffffffffffffffffffffffffffff1673ffffffffffffffffffffffffffffffffffffffff168152602001600382015481526020016004820160009054906101000a900460ff1660ff1660ff16815260200160058201805461058c906123d2565b80601f01602080910402602001604051908101604052809291908181526020018280546105b8906123d2565b80156106055780601f106105da57610100808354040283529160200191610605565b820191906000526020600020905b8154815290600101906020018083116105e857829003601f168201915b505050505081526020016006820160009054906101000a900460ff16151515158152505090508060c001516106a5578273ffffffffffffffffffffffffffffffffffffffff1684604051610659919061243f565b60405180910390207f72c9a8e381eaa01836f5dbbf633268cfcf158e238635ad80ba54b27deb413ade42600060405161069392919061252a565b60405180910390a36000915050610a19565b8273ffffffffffffffffffffffffffffffffffffffff16816040015173ffffffffffffffffffffffffffffffffffffffff160361074d578273ffffffffffffffffffffffffffffffffffffffff1684604051610701919061243f565b60405180910390207f72c9a8e381eaa01836f5dbbf633268cfcf158e238635ad80ba54b27deb413ade42600160405161073b9291906125b2565b60405180910390a36001915050610a19565b600060018560405161075f919061243f565b908152602001604051809103902060008573ffffffffffffffffffffffffffffffffffffffff1673ffffffffffffffffffffffffffffffffffffffff16815260200190815260200160002090508060000160009054906101000a900460ff16610834578373ffffffffffffffffffffffffffffffffffffffff16856040516107e7919061243f565b60405180910390207f72c9a8e381eaa01836f5dbbf633268cfcf158e238635ad80ba54b27deb413ade42600060405161082192919061263a565b60405180910390a3600092505050610a19565b6000816001015411801561084b5750806001015442115b156108df5760008160000160006101000a81548160ff0219169083151502179055508373ffffffffffffffffffffffffffffffffffffffff1685604051610892919061243f565b60405180910390207f72c9a8e381eaa01836f5dbbf633268cfcf158e238635ad80ba54b27deb413ade4260006040516108cc9291906126c2565b60405180910390a3600092505050610a19565b600081600201541180156108fb57508060020154816003015410155b1561098f5760008160000160006101000a81548160ff0219169083151502179055508373ffffffffffffffffffffffffffffffffffffffff1685604051610942919061243f565b60405180910390207f72c9a8e381eaa01836f5dbbf633268cfcf158e238635ad80ba54b27deb413ade42600060405161097c92919061274a565b60405180910390a3600092505050610a19565b60018160030160008282546109a491906127b5565b925050819055508373ffffffffffffffffffffffffffffffffffffffff16856040516109d0919061243f565b60405180910390207f72c9a8e381eaa01836f5dbbf633268cfcf158e238635ad80ba54b27deb413ade426001604051610a0a929190612835565b60405180910390a36001925050505b92915050565b600360019054906101000a900473ffffffffffffffffffffffffffffffffffffffff1673ffffffffffffffffffffffffffffffffffffffff163373ffffffffffffffffffffffffffffffffffffffff1614610aaf576040517f08c379a0000000000000000000000000000000000000000000000000000000008152600401610aa6906128bd565b60405180910390fd5b80600360006101000a81548160ff0219169083151502179055503373ffffffffffffffffffffffffffffffffffffffff167fb61d70e9cb0db4b59a305ed69d5c2e95b4803d94d28d82439aac3f7f52fd161d82604051610b0f9190611c5d565b60405180910390a250565b81600081604051610b2b919061243f565b908152602001604051809103902060060160009054906101000a900460ff16610b89576040517f08c379a0000000000000000000000000000000000000000000000000000000008152600401610b8090612929565b60405180910390fd5b3373ffffffffffffffffffffffffffffffffffffffff16600082604051610bb0919061243f565b908152602001604051809103902060020160009054906101000a900473ffffffffffffffffffffffffffffffffffffffff1673ffffffffffffffffffffffffffffffffffffffff1614610c38576040517f08c379a0000000000000000000000000000000000000000000000000000000008152600401610c2f90612995565b60405180910390fd5b600360009054906101000a900460ff1615610c88576040517f08c379a0000000000000000000000000000000000000000000000000000000008152600401610c7f90612a01565b60405180910390fd5b600073ffffffffffffffffffffffffffffffffffffffff168273ffffffffffffffffffffffffffffffffffffffff1603610cf7576040517f08c379a0000000000000000000000000000000000000000000000000000000008152600401610cee90612a6d565b60405180910390fd5b600033905082600085604051610d0d919061243f565b908152602001604051809103902060020160006101000a81548173ffffffffffffffffffffffffffffffffffffffff021916908373ffffffffffffffffffffffffffffffffffffffff160217905550600260008473ffffffffffffffffffffffffffffffffffffffff1673ffffffffffffffffffffffffffffffffffffffff16815260200190815260200160002084908060018154018082558091505060019003906000526020600020016000909190919091509081610dcd9190612c39565b508273ffffffffffffffffffffffffffffffffffffffff168173ffffffffffffffffffffffffffffffffffffffff1685604051610e0a919061243f565b60405180910390207f6840904f5b31827f74e1497360da245f56e530c8c3de3163a2d31f11493273c660405160405180910390a48073ffffffffffffffffffffffffffffffffffffffff1684604051610e63919061243f565b60405180910390207f72c9a8e381eaa01836f5dbbf633268cfcf158e238635ad80ba54b27deb413ade426001604051610e9d929190612d57565b60405180910390a350505050565b600360019054906101000a900473ffffffffffffffffffffffffffffffffffffffff1681565b600360009054906101000a900460ff1615610f21576040517f08c379a0000000000000000000000000000000000000000000000000000000008152600401610f1890612a01565b60405180910390fd5b600085604051610f31919061243f565b908152602001604051809103902060060160009054906101000a900460ff1615610f90576040517f08c379a0000000000000000000000000000000000000000000000000000000008152600401610f8790612ddf565b60405180910390fd5b6000845111610fd4576040517f08c379a0000000000000000000000000000000000000000000000000000000008152600401610fcb90612e4b565b60405180910390fd5b6000835111611018576040517f08c379a000000000000000000000000000000000000000000000000000000000815260040161100f90612eb7565b60405180910390fd5b6040518060e001604052808581526020018481526020013373ffffffffffffffffffffffffffffffffffffffff1681526020014281526020018360ff16815260200182815260200160011515815250600086604051611077919061243f565b9081526020016040518091039020600082015181600001908161109a9190612c39565b5060208201518160010190816110b09190612c39565b5060408201518160020160006101000a81548173ffffffffffffffffffffffffffffffffffffffff021916908373ffffffffffffffffffffffffffffffffffffffff1602179055506060820151816003015560808201518160040160006101000a81548160ff021916908360ff16021790555060a08201518160050190816111389190612c39565b5060c08201518160060160006101000a81548160ff021916908315150217905550905050600260003373ffffffffffffffffffffffffffffffffffffffff1673ffffffffffffffffffffffffffffffffffffffff168152602001908152602001600020859080600181540180825580915050600190039060005260206000200160009091909190915090816111cd9190612c39565b503373ffffffffffffffffffffffffffffffffffffffff16856040516111f3919061243f565b60405180910390207fb84dfc9c4516b569541a44f11a8e4d59f7331fd083bf96119c58e7516229e62786868660405161122e93929190612ed7565b60405180910390a33373ffffffffffffffffffffffffffffffffffffffff168560405161125b919061243f565b60405180910390207f72c9a8e381eaa01836f5dbbf633268cfcf158e238635ad80ba54b27deb413ade426001604051611295929190612f68565b60405180910390a35050505050565b836000816040516112b5919061243f565b908152602001604051809103902060060160009054906101000a900460ff16611313576040517f08c379a000000000000000000000000000000000000000000000000000000000815260040161130a90612929565b60405180910390fd5b3373ffffffffffffffffffffffffffffffffffffffff1660008260405161133a919061243f565b908152602001604051809103902060020160009054906101000a900473ffffffffffffffffffffffffffffffffffffffff1673ffffffffffffffffffffffffffffffffffffffff16146113c2576040517f08c379a00000000000000000000000000000000000000000000000000000000081526004016113b990612995565b60405180910390fd5b600360009054906101000a900460ff1615611412576040517f08c379a000000000000000000000000000000000000000000000000000000000815260040161140990612a01565b60405180910390fd5b600080841161142257600061142f565b834261142e91906127b5565b5b905060405180608001604052806001151581526020018281526020018481526020016000815250600187604051611466919061243f565b908152602001604051809103902060008773ffffffffffffffffffffffffffffffffffffffff1673ffffffffffffffffffffffffffffffffffffffff16815260200190815260200160002060008201518160000160006101000a81548160ff0219169083151502179055506020820151816001015560408201518160020155606082015181600301559050508473ffffffffffffffffffffffffffffffffffffffff1686604051611517919061243f565b60405180910390207f425f57be9ec0dd5e4a68d1f117e18955fcb898798a3ce53bde57782ff5cc97ee8386604051611550929190612fa4565b60405180910390a38473ffffffffffffffffffffffffffffffffffffffff168660405161157d919061243f565b60405180910390207f72c9a8e381eaa01836f5dbbf633268cfcf158e238635ad80ba54b27deb413ade4260016040516115b7929190613019565b60405180910390a3505050505050565b816000816040516115d8919061243f565b908152602001604051809103902060060160009054906101000a900460ff16611636576040517f08c379a000000000000000000000000000000000000000000000000000000000815260040161162d90612929565b60405180910390fd5b3373ffffffffffffffffffffffffffffffffffffffff1660008260405161165d919061243f565b908152602001604051809103902060020160009054906101000a900473ffffffffffffffffffffffffffffffffffffffff1673ffffffffffffffffffffffffffffffffffffffff16146116e5576040517f08c379a00000000000000000000000000000000000000000000000000000000081526004016116dc90612995565b60405180910390fd5b600360009054906101000a900460ff1615611735576040517f08c379a000000000000000000000000000000000000000000000000000000000815260040161172c90612a01565b60405180910390fd5b600183604051611745919061243f565b908152602001604051809103902060008373ffffffffffffffffffffffffffffffffffffffff1673ffffffffffffffffffffffffffffffffffffffff16815260200190815260200160002060000160009054906101000a900460ff166117e0576040517f08c379a00000000000000000000000000000000000000000000000000000000081526004016117d7906130a1565b60405180910390fd5b60006001846040516117f2919061243f565b908152602001604051809103902060008473ffffffffffffffffffffffffffffffffffffffff1673ffffffffffffffffffffffffffffffffffffffff16815260200190815260200160002060000160006101000a81548160ff0219169083151502179055508173ffffffffffffffffffffffffffffffffffffffff168360405161187c919061243f565b60405180910390207fa4056635223780a71518e8c10b6fc0fd195775c8375c4841c124a959ae5c30ad60405160405180910390a38173ffffffffffffffffffffffffffffffffffffffff16836040516118d5919061243f565b60405180910390207f72c9a8e381eaa01836f5dbbf633268cfcf158e238635ad80ba54b27deb413ade42600160405161190f92919061310d565b60405180910390a3505050565b60608060008060006060600087604051611936919061243f565b908152602001604051809103902060060160009054906101000a900460ff16611994576040517f08c379a000000000000000000000000000000000000000000000000000000000815260040161198b90612929565b60405180910390fd5b600080886040516119a5919061243f565b90815260200160405180910390206040518060e00160405290816000820180546119ce906123d2565b80601f01602080910402602001604051908101604052809291908181526020018280546119fa906123d2565b8015611a475780601f10611a1c57610100808354040283529160200191611a47565b820191906000526020600020905b815481529060010190602001808311611a2a57829003601f168201915b50505050508152602001600182018054611a60906123d2565b80601f0160208091040260200160405190810160405280929190818152602001828054611a8c906123d2565b8015611ad95780601f10611aae57610100808354040283529160200191611ad9565b820191906000526020600020905b815481529060010190602001808311611abc57829003601f168201915b505050505081526020016002820160009054906101000a900473ffffffffffffffffffffffffffffffffffffffff1673ffffffffffffffffffffffffffffffffffffffff1673ffffffffffffffffffffffffffffffffffffffff168152602001600382015481526020016004820160009054906101000a900460ff1660ff1660ff168152602001600582018054611b6f906123d2565b80601f0160208091040260200160405190810160405280929190818152602001828054611b9b906123d2565b8015611be85780601f10611bbd57610100808354040283529160200191611be8565b820191906000526020600020905b815481529060010190602001808311611bcb57829003601f168201915b505050505081526020016006820160009054906101000a900460ff1615151515815250509050806000015181602001518260400151836060015184608001518560a001519650965096509650965096505091939550919395565b60008115159050919050565b611c5781611c42565b82525050565b6000602082019050611c726000830184611c4e565b92915050565b6000604051905090565b600080fd5b600080fd5b600073ffffffffffffffffffffffffffffffffffffffff82169050919050565b6000611cb782611c8c565b9050919050565b611cc781611cac565b8114611cd257600080fd5b50565b600081359050611ce481611cbe565b92915050565b600060208284031215611d0057611cff611c82565b5b6000611d0e84828501611cd5565b91505092915050565b600081519050919050565b600082825260208201905092915050565b6000819050602082019050919050565b600081519050919050565b600082825260208201905092915050565b60005b83811015611d7d578082015181840152602081019050611d62565b60008484015250505050565b6000601f19601f8301169050919050565b6000611da582611d43565b611daf8185611d4e565b9350611dbf818560208601611d5f565b611dc881611d89565b840191505092915050565b6000611ddf8383611d9a565b905092915050565b6000602082019050919050565b6000611dff82611d17565b611e098185611d22565b935083602082028501611e1b85611d33565b8060005b85811015611e575784840389528151611e388582611dd3565b9450611e4383611de7565b925060208a01995050600181019050611e1f565b50829750879550505050505092915050565b60006020820190508181036000830152611e838184611df4565b905092915050565b600080fd5b600080fd5b7f4e487b7100000000000000000000000000000000000000000000000000000000600052604160045260246000fd5b611ecd82611d89565b810181811067ffffffffffffffff82111715611eec57611eeb611e95565b5b80604052505050565b6000611eff611c78565b9050611f0b8282611ec4565b919050565b600067ffffffffffffffff821115611f2b57611f2a611e95565b5b611f3482611d89565b9050602081019050919050565b82818337600083830152505050565b6000611f63611f5e84611f10565b611ef5565b905082815260208101848484011115611f7f57611f7e611e90565b5b611f8a848285611f41565b509392505050565b600082601f830112611fa757611fa6611e8b565b5b8135611fb7848260208601611f50565b91505092915050565b60008060408385031215611fd757611fd6611c82565b5b600083013567ffffffffffffffff811115611ff557611ff4611c87565b5b61200185828601611f92565b925050602061201285828601611cd5565b9150509250929050565b61202581611c42565b811461203057600080fd5b50565b6000813590506120428161201c565b92915050565b60006020828403121561205e5761205d611c82565b5b600061206c84828501612033565b91505092915050565b61207e81611cac565b82525050565b60006020820190506120996000830184612075565b92915050565b600060ff82169050919050565b6120b58161209f565b81146120c057600080fd5b50565b6000813590506120d2816120ac565b92915050565b600080600080600060a086880312156120f4576120f3611c82565b5b600086013567ffffffffffffffff81111561211257612111611c87565b5b61211e88828901611f92565b955050602086013567ffffffffffffffff81111561213f5761213e611c87565b5b61214b88828901611f92565b945050604086013567ffffffffffffffff81111561216c5761216b611c87565b5b61217888828901611f92565b9350506060612189888289016120c3565b925050608086013567ffffffffffffffff8111156121aa576121a9611c87565b5b6121b688828901611f92565b9150509295509295909350565b6000819050919050565b6121d6816121c3565b81146121e157600080fd5b50565b6000813590506121f3816121cd565b92915050565b6000806000806080858703121561221357612212611c82565b5b600085013567ffffffffffffffff81111561223157612230611c87565b5b61223d87828801611f92565b945050602061224e87828801611cd5565b935050604061225f878288016121e4565b9250506060612270878288016121e4565b91505092959194509250565b60006020828403121561229257612291611c82565b5b600082013567ffffffffffffffff8111156122b0576122af611c87565b5b6122bc84828501611f92565b91505092915050565b600082825260208201905092915050565b60006122e182611d43565b6122eb81856122c5565b93506122fb818560208601611d5f565b61230481611d89565b840191505092915050565b612318816121c3565b82525050565b6123278161209f565b82525050565b600060c082019050818103600083015261234781896122d6565b9050818103602083015261235b81886122d6565b905061236a6040830187612075565b612377606083018661230f565b612384608083018561231e565b81810360a083015261239681846122d6565b9050979650505050505050565b7f4e487b7100000000000000000000000000000000000000000000000000000000600052602260045260246000fd5b600060028204905060018216806123ea57607f821691505b6020821081036123fd576123fc6123a3565b5b50919050565b600081905092915050565b600061241982611d43565b6124238185612403565b9350612433818560208601611d5f565b80840191505092915050565b600061244b828461240e565b915081905092915050565b7f5645524946595f4641494c45445f4c4f434b0000000000000000000000000000600082015250565b600061248c6012836122c5565b915061249782612456565b602082019050919050565b600060608201905081810360008301526124bb8161247f565b90506124ca602083018561230f565b6124d76040830184611c4e565b9392505050565b7f5645524946595f4641494c45445f455849535453000000000000000000000000600082015250565b60006125146014836122c5565b915061251f826124de565b602082019050919050565b6000606082019050818103600083015261254381612507565b9050612552602083018561230f565b61255f6040830184611c4e565b9392505050565b7f5645524946595f535543434553535f4f574e4552000000000000000000000000600082015250565b600061259c6014836122c5565b91506125a782612566565b602082019050919050565b600060608201905081810360008301526125cb8161258f565b90506125da602083018561230f565b6125e76040830184611c4e565b9392505050565b7f5645524946595f4641494c45445f4e4f545f4752414e54454400000000000000600082015250565b60006126246019836122c5565b915061262f826125ee565b602082019050919050565b6000606082019050818103600083015261265381612617565b9050612662602083018561230f565b61266f6040830184611c4e565b9392505050565b7f5645524946595f4641494c45445f455850495245440000000000000000000000600082015250565b60006126ac6015836122c5565b91506126b782612676565b602082019050919050565b600060608201905081810360008301526126db8161269f565b90506126ea602083018561230f565b6126f76040830184611c4e565b9392505050565b7f5645524946595f4641494c45445f444f574e4c4f41445f4c494d495400000000600082015250565b6000612734601c836122c5565b915061273f826126fe565b602082019050919050565b6000606082019050818103600083015261276381612727565b9050612772602083018561230f565b61277f6040830184611c4e565b9392505050565b7f4e487b7100000000000000000000000000000000000000000000000000000000600052601160045260246000fd5b60006127c0826121c3565b91506127cb836121c3565b92508282019050808211156127e3576127e2612786565b5b92915050565b7f5645524946595f535543434553535f5348415245440000000000000000000000600082015250565b600061281f6015836122c5565b915061282a826127e9565b602082019050919050565b6000606082019050818103600083015261284e81612812565b905061285d602083018561230f565b61286a6040830184611c4e565b9392505050565b7f4e6f7420636f6e7472616374206f776e65720000000000000000000000000000600082015250565b60006128a76012836122c5565b91506128b282612871565b602082019050919050565b600060208201905081810360008301526128d68161289a565b9050919050565b7f46696c6520646f6573206e6f7420657869737400000000000000000000000000600082015250565b60006129136013836122c5565b915061291e826128dd565b602082019050919050565b6000602082019050818103600083015261294281612906565b9050919050565b7f4e6f74207468652066696c65206f776e65720000000000000000000000000000600082015250565b600061297f6012836122c5565b915061298a82612949565b602082019050919050565b600060208201905081810360008301526129ae81612972565b9050919050565b7f53797374656d20697320756e64657220656d657267656e6379206c6f636b0000600082015250565b60006129eb601e836122c5565b91506129f6826129b5565b602082019050919050565b60006020820190508181036000830152612a1a816129de565b9050919050565b7f496e76616c6964206e6577206f776e6572206164647265737300000000000000600082015250565b6000612a576019836122c5565b9150612a6282612a21565b602082019050919050565b60006020820190508181036000830152612a8681612a4a565b9050919050565b60008190508160005260206000209050919050565b60006020601f8301049050919050565b600082821b905092915050565b600060088302612aef7fffffffffffffffffffffffffffffffffffffffffffffffffffffffffffffffff82612ab2565b612af98683612ab2565b95508019841693508086168417925050509392505050565b6000819050919050565b6000612b36612b31612b2c846121c3565b612b11565b6121c3565b9050919050565b6000819050919050565b612b5083612b1b565b612b64612b5c82612b3d565b848454612abf565b825550505050565b600090565b612b79612b6c565b612b84818484612b47565b505050565b5b81811015612ba857612b9d600082612b71565b600181019050612b8a565b5050565b601f821115612bed57612bbe81612a8d565b612bc784612aa2565b81016020851015612bd6578190505b612bea612be285612aa2565b830182612b89565b50505b505050565b600082821c905092915050565b6000612c1060001984600802612bf2565b1980831691505092915050565b6000612c298383612bff565b9150826002028217905092915050565b612c4282611d43565b67ffffffffffffffff811115612c5b57612c5a611e95565b5b612c6582546123d2565b612c70828285612bac565b600060209050601f831160018114612ca35760008415612c91578287015190505b612c9b8582612c1d565b865550612d03565b601f198416612cb186612a8d565b60005b82811015612cd957848901518255600182019150602085019450602081019050612cb4565b86831015612cf65784890151612cf2601f891682612bff565b8355505b6001600288020188555050505b505050505050565b7f5452414e534645525f4f574e4552534849500000000000000000000000000000600082015250565b6000612d416012836122c5565b9150612d4c82612d0b565b602082019050919050565b60006060820190508181036000830152612d7081612d34565b9050612d7f602083018561230f565b612d8c6040830184611c4e565b9392505050565b7f46696c6520616c72656164792072656769737465726564000000000000000000600082015250565b6000612dc96017836122c5565b9150612dd482612d93565b602082019050919050565b60006020820190508181036000830152612df881612dbc565b9050919050565b7f4349442063616e6e6f7420626520656d70747900000000000000000000000000600082015250565b6000612e356013836122c5565b9150612e4082612dff565b602082019050919050565b60006020820190508181036000830152612e6481612e28565b9050919050565b7f486173682063616e6e6f7420626520656d707479000000000000000000000000600082015250565b6000612ea16014836122c5565b9150612eac82612e6b565b602082019050919050565b60006020820190508181036000830152612ed081612e94565b9050919050565b60006060820190508181036000830152612ef181866122d6565b90508181036020830152612f0581856122d6565b9050612f14604083018461231e565b949350505050565b7f5245474953544552000000000000000000000000000000000000000000000000600082015250565b6000612f526008836122c5565b9150612f5d82612f1c565b602082019050919050565b60006060820190508181036000830152612f8181612f45565b9050612f90602083018561230f565b612f9d6040830184611c4e565b9392505050565b6000604082019050612fb9600083018561230f565b612fc6602083018461230f565b9392505050565b7f4752414e545f4143434553530000000000000000000000000000000000000000600082015250565b6000613003600c836122c5565b915061300e82612fcd565b602082019050919050565b6000606082019050818103600083015261303281612ff6565b9050613041602083018561230f565b61304e6040830184611c4e565b9392505050565b7f41636365737320776173206e6f74206772616e74656400000000000000000000600082015250565b600061308b6016836122c5565b915061309682613055565b602082019050919050565b600060208201905081810360008301526130ba8161307e565b9050919050565b7f5245564f4b455f41434345535300000000000000000000000000000000000000600082015250565b60006130f7600d836122c5565b9150613102826130c1565b602082019050919050565b60006060820190508181036000830152613126816130ea565b9050613135602083018561230f565b6131426040830184611c4e565b939250505056fea264697066735822122032e7d54c0602a6a3e29d97f5b33764b1da744533a3ba6ec25d9771c76549124764736f6c63430008180033",
  "linkReferences": {},
  "deployedLinkReferences": {}
}