{"contracts/FileRegistry.sol":{"FileRegistry":{"abi":[{"inputs":[],"stateMutability":"nonpayable","type":"constructor"},{"anonymous":false,"inputs":[{"indexed":true,"internalType":"string","name":"fileId","type":"string"},{"indexed":true,"internalType":"address","name":"accessor","type":"address"},{"indexed":false,"internalType":"uint256","name":"validUntil","type":"uint256"},{"indexed":false,"internalType":"uint256","name":"maxDownloads","type":"uint256"}],"name":"AccessGranted","type":"event"},{"anonymous":false,"inputs":[{"indexed":true,"internalType":"string","name":"fileId","type":"string"},{"indexed":true,"internalType":"address","name":"accessor","type":"address"},{"indexed":false,"internalType":"string","name":"action","type":"string"},{"indexed":false,"internalType":"uint256","name":"timestamp","type":"uint256"},{"indexed":false,"internalType":"bool","name":"isSuccess","type":"bool"}],"name":"AccessLogged","type":"event"},{"anonymous":false,"inputs":[{"indexed":true,"internalType":"string","name":"fileId","type":"string"},{"indexed":true,"internalType":"address","name":"accessor","type":"address"}],"name":"AccessRevoked","type":"event"},{"anonymous":false,"inputs":[{"indexed":true,"internalType":"address","name":"triggeredBy","type":"address"},{"indexed":false,"internalType":"bool","name":"lockedState","type":"bool"}],"name":"EmergencyLockTriggered","type":"event"},{"anonymous":false,"inputs":[{"indexed":true,"internalType":"string","name":"fileId","type":"string"},{"indexed":false,"internalType":"string","name":"cid","type":"string"},{"indexed":false,"internalType":"string","name":"fileHash","type":"string"},{"indexed":true,"internalType":"address","name":"owner","type":"address"},{"indexed":false,"internalType":"uint8","name":"threatScore","type":"uint8"}],"name":"FileRegistered","type":"event"},{"anonymous":false,"inputs":[{"indexed":true,"internalType":"string","name":"fileId","type":"string"},{"indexed":true,"internalType":"address","name":"previousOwner","type":"address"},{"indexed":true,"internalType":"address","name":"newOwner","type":"address"}],"name":"OwnershipTransferred","type":"event"},{"inputs":[],"name":"contractOwner","outputs":[{"internalType":"address","name":"","type":"address"}],"stateMutability":"view","type":"function"},{"inputs":[{"internalType":"string","name":"fileId","type":"string"}],"name":"getFile","outputs":[{"internalType":"string","name":"cid","type":"string"},{"internalType":"string","name":"fileHash","type":"string"},{"internalType":"address","name":"owner","type":"address"},{"internalType":"uint256","name":"timestamp","type":"uint256"},{"internalType":"uint8","name":"threatScore","type":"uint8"},{"internalType":"string","name":"signature","type":"string"}],"stateMutability":"view","type":"function"},{"inputs":[{"internalType":"address","name":"user","type":"address"}],"name":"getUserOwnedFiles","outputs":[{"internalType":"string[]","name":"","type":"string[]"}],"stateMutability":"view","type":"function"},{"inputs":[{"internalType":"string","name":"fileId","type":"string"},{"internalType":"address","name":"accessor","type":"address"},{"internalType":"uint256","name":"durationSeconds","type":"uint256"},{"internalType":"uint256","name":"maxDownloads","type":"uint256"}],"name":"grantAccess","outputs":[],"stateMutability":"nonpayable","type":"function"},{"inputs":[{"internalType":"string","name":"fileId","type":"string"},{"internalType":"string","name":"cid","type":"string"},{"internalType":"string","name":"fileHash","type":"string"},{"internalType":"uint8","name":"threatScore","type":"uint8"},{"internalType":"string","name":"signature","type":"string"}],"name":"registerFile","outputs":[],"stateMutability":"nonpayable","type":"function"},{"inputs":[{"internalType":"string","name":"fileId","type":"string"},{"internalType":"address","name":"accessor","type":"address"}],"name":"revokeAccess","outputs":[],"stateMutability":"nonpayable","type":"function"},{"inputs":[{"internalType":"bool","name":"state","type":"bool"}],"name":"setEmergencyLock","outputs":[],"stateMutability":"nonpayable","type":"function"},{"inputs":[],"name":"systemEmergencyLock","outputs":[{"internalType":"bool","name":"","type":"bool"}],"stateMutability":"view","type":"function"},{"inputs":[{"internalType":"string","name":"fileId","type":"string"},{"internalType":"address","name":"newOwner","type":"address"}],"name":"transferOwnership","outputs":[],"stateMutability":"nonpayable","type":"function"},{"inputs":[{"internalType":"string","name":"fileId","type":"string"},{"internalType":"address","name":"accessor","type":"address"}],"name":"verifyAccess","outputs":[{"internalType":"bool","name":"","type":"bool"}],"stateMutability":"nonpayable","type":"function"}],"evm":{"bytecode":{"linkReferences":{},"object":"60806040526000600360006101000a81548160ff02191690831515021790555034801561002b57600080fd5b5033600360016101000a81548173ffffffffffffffffffffffffffffffffffffffff021916908373ffffffffffffffffffffffffffffffffffffffff16021790555061317f8061007c6000396000f3fe608060405234801561001057600080fd5b506004361061009d5760003560e01c8063ce606ee011610066578063ce606ee014610158578063d545d56314610176578063d6807bef14610192578063dfe0b5fe146101ae578063e0876aa8146101ca5761009d565b806254d32f146100a2578063638442ba146100c0578063878b6922146100f05780639f75c9e014610120578063c0e793c21461013c575b600080fd5b6100aa6101ff565b6040516100b79190611c5d565b60405180910390f35b6100da60048036038101906100d59190611cea565b610212565b6040516100e79190611e69565b60405180910390f35b61010a60048036038101906101059190611fc0565b61032a565b6040516101179190611c5d565b60405180910390f35b61013a60048036038101906101359190612048565b610a1f565b005b61015660048036038101906101519190611fc0565b610b1a565b005b610160610eab565b60405161016d9190612084565b60405180910390f35b610190600480360381019061018b91906120d8565b610ed1565b005b6101ac60048036038101906101a791906121f9565b6112a4565b005b6101c860048036038101906101c39190611fc0565b6115c7565b005b6101e460048036038101906101df919061227c565b61191c565b6040516101f69695949392919061232d565b60405180910390f35b600360009054906101000a900460ff1681565b6060600260008373ffffffffffffffffffffffffffffffffffffffff1673ffffffffffffffffffffffffffffffffffffffff168152602001908152602001600020805480602002602001604051908101604052809291908181526020016000905b8282101561031f578382906000526020600020018054610292906123d2565b80601f01602080910402602001604051908101604052809291908181526020018280546102be906123d2565b801561030b5780601f106102e05761010080835404028352916020019161030b565b820191906000526020600020905b8154815290600101906020018083116102ee57829003601f168201915b505050505081526020019060010190610273565b505050509050919050565b6000600360009054906101000a900460ff16156103b1578173ffffffffffffffffffffffffffffffffffffffff1683604051610366919061243f565b60405180910390207f72c9a8e381eaa01836f5dbbf633268cfcf158e238635ad80ba54b27deb413ade4260006040516103a09291906124a2565b60405180910390a360009050610a19565b600080846040516103c2919061243f565b90815260200160405180910390206040518060e00160405290816000820180546103eb906123d2565b80601f0160208091040260200160405190810160405280929190818152602001828054610417906123d2565b80156104645780601f1061043957610100808354040283529160200191610464565b820191906000526020600020905b81548152906001019060200180831161044757829003601f168201915b5050505050815260200160018201805461047d906123d2565b80601f01602080910402602001604051908101604052809291908181526020018280546104a9906123d2565b80156104f65780601f106104cb576101008083540402835291602001916104f6565b820191906000526020600020905b8154815290600101906020018083116104d957829003601f168201915b505050505081526020016002820160009054906101000a900473ffffffffffffffffffffffffffffffffffffffff1673ffffffffffffffffffffffffffffffffffffffff1673ffffffffffffffffffffffffffffffffffffffff168152602001600382015481526020016004820160009054906101000a900460ff1660ff1660ff16815260200160058201805461058c906123d2565b80601f01602080910402602001604051908101604052809291908181526020018280546105b8906123d2565b80156106055780601f106105da57610100808354040283529160200191610605565b820191906000526020600020905b8154815290600101906020018083116105e857829003601f168201915b505050505081526020016006820160009054906101000a900460ff16151515158152505090508060c001516106a5578273ffffffffffffffffffffffffffffffffffffffff1684604051610659919061243f565b60405180910390207f72c9a8e381eaa01836f5dbbf633268cfcf158e238635ad80ba54b27deb413ade42600060405161069392919061252a565b60405180910390a36000915050610a19565b8273ffffffffffffffffffffffffffffffffffffffff16816040015173ffffffffffffffffffffffffffffffffffffffff160361074d578273ffffffffffffffffffffffffffffffffffffffff1684604051610701919061243f565b60405180910390207f72c9a8e381eaa01836f5dbbf633268cfcf158e238635ad80ba54b27deb413ade42600160405161073b9291906125b2565b60405180910390a36001915050610a19565b600060018560405161075f919061243f565b908152602001604051809103902060008573ffffffffffffffffffffffffffffffffffffffff1673ffffffffffffffffffffffffffffffffffffffff16815260200190815260200160002090508060000160009054906101000a900460ff16610834578373ffffffffffffffffffffffffffffffffffffffff16856040516107e7919061243f565b60405180910390207f72c9a8e381eaa01836f5dbbf633268cfcf158e238635ad80ba54b27deb413ade42600060405161082192919061263a565b60405180910390a3600092505050610a19565b6000816001015411801561084b5750806001015442115b156108df5760008160000160006101000a81548160ff0219169083151502179055508373ffffffffffffffffffffffffffffffffffffffff1685604051610892919061243f565b60405180910390207f72c9a8e381eaa01836f5dbbf633268cfcf158e238635ad80ba54b27deb413ade4260006040516108cc9291906126c2565b60405180910390a3600092505050610a19565b600081600201541180156108fb57508060020154816003015410155b1561098f5760008160000160006101000a81548160ff0219169083151502179055508373ffffffffffffffffffffffffffffffffffffffff1685604051610942919061243f565b60405180910390207f72c9a8e381eaa01836f5dbbf633268cfcf158e238635ad80ba54b27deb413ade42600060405161097c92919061274a565b60405180910390a3600092505050610a19565b60018160030160008282546109a491906127b5565b925050819055508373ffffffffffffffffffffffffffffffffffffffff16856040516109d0919061243f565b60405180910390207f72c9a8e381eaa01836f5dbbf633268cfcf158e238635ad80ba54b27deb413ade426001604051610a0a929190612835565b60405180910390a36001925050505b92915050565b600360019054906101000a900473ffffffffffffffffffffffffffffffffffffffff1673ffffffffffffffffffffffffffffffffffffffff163373ffffffffffffffffffffffffffffffffffffffff1614610aaf576040517f08c379a0000000000000000000000000000000000000000000000000000000008152600401610aa6906128bd565b60405180910390fd5b80600360006101000a81548160ff0219169083151502179055503373ffffffffffffffffffffffffffffffffffffffff167fb61d70e9cb0db4b59a305ed69d5c2e95b4803d94d28d82439aac3f7f52fd161d82604051610b0f9190611c5d565b60405180910390a250565b81600081604051610b2b919061243f565b908152602001604051809103902060060160009054906101000a900460ff16610b89576040517f08c379a0000000000000000000000000000000000000000000000000000000008152600401610b8090612929565b60405180910390fd5b3373ffffffffffffffffffffffffffffffffffffffff16600082604051610bb0919061243f565b908152602001604051809103902060020160009054906101000a900473ffffffffffffffffffffffffffffffffffffffff1673ffffffffffffffffffffffffffffffffffffffff1614610c38576040517f08c379a0000000000000000000000000000000000000000000000000000000008152600401610c2f90612995565b60405180910390fd5b600360009054906101000a900460ff1615610c88576040517f08c379a0000000000000000000000000000000000000000000000000000000008152600401610c7f90612a01565b60405180910390fd5b600073ffffffffffffffffffffffffffffffffffffffff168273ffffffffffffffffffffffffffffffffffffffff1603610cf7576040517f08c379a0000000000000000000000000000000000000000000000000000000008152600401610cee90612a6d565b60405180910390fd5b600033905082600085604051610d0d919061243f565b908152602001604051809103902060020160006101000a81548173ffffffffffffffffffffffffffffffffffffffff021916908373ffffffffffffffffffffffffffffffffffffffff160217905550600260008473ffffffffffffffffffffffffffffffffffffffff1673ffffffffffffffffffffffffffffffffffffffff16815260200190815260200160002084908060018154018082558091505060019003906000526020600020016000909190919091509081610dcd9190612c39565b508273ffffffffffffffffffffffffffffffffffffffff168173ffffffffffffffffffffffffffffffffffffffff1685604051610e0a919061243f565b60405180910390207f6840904f5b31827f74e1497360da245f56e530c8c3de3163a2d31f11493273c660405160405180910390a48073ffffffffffffffffffffffffffffffffffffffff1684604051610e63919061243f565b60405180910390207f72c9a8e381eaa01836f5dbbf633268cfcf158e238635ad80ba54b27deb413ade426001604051610e9d929190612d57565b60405180910390a350505050565b600360019054906101000a900473ffffffffffffffffffffffffffffffffffffffff1681565b600360009054906101000a900460ff1615610f21576040517f08c379a0000000000000000000000000000000000000000000000000000000008152600401610f1890612a01565b60405180910390fd5b600085604051610f31919061243f565b908152602001604051809103902060060160009054906101000a900460ff1615610f90576040517f08c379a0000000000000000000000000000000000000000000000000000000008152600401610f8790612ddf565b60405180910390fd5b6000845111610fd4576040517f08c379a0000000000000000000000000000000000000000000000000000000008152600401610fcb90612e4b565b60405180910390fd5b6000835111611018576040517f08c379a000000000000000000000000000000000000000000000000000000000815260040161100f90612eb7565b60405180910390fd5b6040518060e001604052808581526020018481526020013373ffffffffffffffffffffffffffffffffffffffff1681526020014281526020018360ff16815260200182815260200160011515815250600086604051611077919061243f565b9081526020016040518091039020600082015181600001908161109a9190612c39565b5060208201518160010190816110b09190612c39565b5060408201518160020160006101000a81548173ffffffffffffffffffffffffffffffffffffffff021916908373ffffffffffffffffffffffffffffffffffffffff1602179055506060820151816003015560808201518160040160006101000a81548160ff021916908360ff16021790555060a08201518160050190816111389190612c39565b5060c08201518160060160006101000a81548160ff021916908315150217905550905050600260003373ffffffffffffffffffffffffffffffffffffffff1673ffffffffffffffffffffffffffffffffffffffff168152602001908152602001600020859080600181540180825580915050600190039060005260206000200160009091909190915090816111cd9190612c39565b503373ffffffffffffffffffffffffffffffffffffffff16856040516111f3919061243f565b60405180910390207fb84dfc9c4516b569541a44f11a8e4d59f7331fd083bf96119c58e7516229e62786868660405161122e93929190612ed7565b60405180910390a33373ffffffffffffffffffffffffffffffffffffffff168560405161125b919061243f565b60405180910390207f72c9a8e381eaa01836f5dbbf633268cfcf158e238635ad80ba54b27deb413ade426001604051611295929190612f68565b60405180910390a35050505050565b836000816040516112b5919061243f565b908152602001604051809103902060060160009054906101000a900460ff16611313576040517f08c379a000000000000000000000000000000000000000000000000000000000815260040161130a90612929565b60405180910390fd5b3373ffffffffffffffffffffffffffffffffffffffff1660008260405161133a919061243f565b908152602001604051809103902060020160009054906101000a900473ffffffffffffffffffffffffffffffffffffffff1673ffffffffffffffffffffffffffffffffffffffff16146113c2576040517f08c379a00000000000000000000000000000000000000000000000000000000081526004016113b990612995565b60405180910390fd5b600360009054906101000a900460ff1615611412576040517f08c379a000000000000000000000000000000000000000000000000000000000815260040161140990612a01565b60405180910390fd5b600080841161142257600061142f565b834261142e91906127b5565b5b905060405180608001604052806001151581526020018281526020018481526020016000815250600187604051611466919061243f565b908152602001604051809103902060008773ffffffffffffffffffffffffffffffffffffffff1673ffffffffffffffffffffffffffffffffffffffff16815260200190815260200160002060008201518160000160006101000a81548160ff0219169083151502179055506020820151816001015560408201518160020155606082015181600301559050508473ffffffffffffffffffffffffffffffffffffffff1686604051611517919061243f565b60405180910390207f425f57be9ec0dd5e4a68d1f117e18955fcb898798a3ce53bde57782ff5cc97ee8386604051611550929190612fa4565b60405180910390a38473ffffffffffffffffffffffffffffffffffffffff168660405161157d919061243f565b60405180910390207f72c9a8e381eaa01836f5dbbf633268cfcf158e238635ad80ba54b27deb413ade4260016040516115b7929190613019565b60405180910390a3505050505050565b816000816040516115d8919061243f565b908152602001604051809103902060060160009054906101000a900460ff16611636576040517f08c379a000000000000000000000000000000000000000000000000000000000815260040161162d90612929565b60405180910390fd5b3373ffffffffffffffffffffffffffffffffffffffff1660008260405161165d919061243f565b908152602001604051809103902060020160009054906101000a900473ffffffffffffffffffffffffffffffffffffffff1673ffffffffffffffffffffffffffffffffffffffff16146116e5576040517f08c379a00000000000000000000000000000000000000000000000000000000081526004016116dc90612995565b60405180910390fd5b600360009054906101000a900460ff1615611735576040517f08c379a000000000000000000000000000000000000000000000000000000000815260040161172c90612a01565b60405180910390fd5b600183604051611745919061243f565b908152602001604051809103902060008373ffffffffffffffffffffffffffffffffffffffff1673ffffffffffffffffffffffffffffffffffffffff16815260200190815260200160002060000160009054906101000a900460ff166117e0576040517f08c379a00000000000000000000000000000000000000000000000000000000081526004016117d7906130a1565b60405180910390fd5b60006001846040516117f2919061243f565b908152602001604051809103902060008473ffffffffffffffffffffffffffffffffffffffff1673ffffffffffffffffffffffffffffffffffffffff16815260200190815260200160002060000160006101000a81548160ff0219169083151502179055508173ffffffffffffffffffffffffffffffffffffffff168360405161187c919061243f565b60405180910390207fa4056635223780a71518e8c10b6fc0fd195775c8375c4841c124a959ae5c30ad60405160405180910390a38173ffffffffffffffffffffffffffffffffffffffff16836040516118d5919061243f565b60405180910390207f72c9a8e381eaa01836f5dbbf633268cfcf158e238635ad80ba54b27deb413ade42600160405161190f92919061310d565b60405180910390a3505050565b60608060008060006060600087604051611936919061243f565b908152602001604051809103902060060160009054906101000a900460ff16611994576040517f08c379a000000000000000000000000000000000000000000000000000000000815260040161198b90612929565b60405180910390fd5b600080886040516119a5919061243f565b90815260200160405180910390206040518060e00160405290816000820180546119ce906123d2565b80601f01602080910402602001604051908101604052809291908181526020018280546119fa906123d2565b8015611a475780601f10611a1c57610100808354040283529160200191611a47565b820191906000526020600020905b815481529060010190602001808311611a2a57829003601f168201915b50505050508152602001600182018054611a60906123d2565b80601f0160208091040260200160405190810160405280929190818152602001828054611a8c906123d2565b8015611ad95780601f10611aae57610100808354040283529160200191611ad9565b820191906000526020600020905b815481529060010190602001808311611abc57829003601f168201915b505050505081526020016002820160009054906101000a900473ffffffffffffffffffffffffffffffffffffffff1673ffffffffffffffffffffffffffffffffffffffff1673ffffffffffffffffffffffffffffffffffffffff168152602001600382015481526020016004820160009054906101000a900460ff1660ff1660ff168152602001600582018054611b6f906123d2565b80601f0160208091040260200160405190810160405280929190818152602001828054611b9b906123d2565b8015611be85780601f10611bbd57610100808354040283529160200191611be8565b820191906000526020600020905b815481529060010190602001808311611bcb57829003601f168201915b505050505081526020016006820160009054906101000a900460ff1615151515815250509050806000015181602001518260400151836060015184608001518560a001519650965096509650965096505091939550919395565b60008115159050919050565b611c5781611c42565b82525050565b6000602082019050611c726000830184611c4e565b92915050565b6000604051905090565b600080fd5b600080fd5b600073ffffffffffffffffffffffffffffffffffffffff82169050919050565b6000611cb782611c8c565b9050919050565b611cc781611cac565b8114611cd257600080fd5b50565b600081359050611ce481611cbe565b92915050565b600060208284031215611d0057611cff611c82565b5b6000611d0e84828501611cd5565b91505092915050565b600081519050919050565b600082825260208201905092915050565b6000819050602082019050919050565b600081519050919050565b600082825260208201905092915050565b60005b83811015611d7d578082015181840152602081019050611d62565b60008484015250505050565b6000601f19601f8301169050919050565b6000611da582611d43565b611daf8185611d4e565b9350611dbf818560208601611d5f565b611dc881611d89565b840191505092915050565b6000611ddf8383611d9a565b905092915050565b6000602082019050919050565b6000611dff82611d17565b611e098185611d22565b935083602082028501611e1b85611d33565b8060005b85811015611e575784840389528151611e388582611dd3565b9450611e4383611de7565b925060208a01995050600181019050611e1f565b50829750879550505050505092915050565b60006020820190508181036000830152611e838184611df4565b905092915050565b600080fd5b600080fd5b7f4e487b7100000000000000000000000000000000000000000000000000000000600052604160045260246000fd5b611ecd82611d89565b810181811067ffffffffffffffff82111715611eec57611eeb611e95565b5b80604052505050565b6000611eff611c78565b9050611f0b8282611ec4565b919050565b600067ffffffffffffffff821115611f2b57611f2a611e95565b5b611f3482611d89565b9050602081019050919050565b82818337600083830152505050565b6000611f63611f5e84611f10565b611ef5565b905082815260208101848484011115611f7f57611f7e611e90565b5b611f8a848285611f41565b509392505050565b600082601f830112611fa757611fa6611e8b565b5b8135611fb7848260208601611f50565b91505092915050565b60008060408385031215611fd757611fd6611c82565b5b600083013567ffffffffffffffff811115611ff557611ff4611c87565b5b61200185828601611f92565b925050602061201285828601611cd5565b9150509250929050565b61202581611c42565b811461203057600080fd5b50565b6000813590506120428161201c565b92915050565b60006020828403121561205e5761205d611c82565b5b600061206c84828501612033565b91505092915050565b61207e81611cac565b82525050565b60006020820190506120996000830184612075565b92915050565b600060ff82169050919050565b6120b58161209f565b81146120c057600080fd5b50565b6000813590506120d2816120ac565b92915050565b600080600080600060a086880312156120f4576120f3611c82565b5b600086013567ffffffffffffffff81111561211257612111611c87565b5b61211e88828901611f92565b955050602086013567ffffffffffffffff81111561213f5761213e611c87565b5b61214b88828901611f92565b945050604086013567ffffffffffffffff81111561216c5761216b611c87565b5b61217888828901611f92565b9350506060612189888289016120c3565b925050608086013567ffffffffffffffff8111156121aa576121a9611c87565b5b6121b688828901611f92565b9150509295509295909350565b6000819050919050565b6121d6816121c3565b81146121e157600080fd5b50565b6000813590506121f3816121cd565b92915050565b6000806000806080858703121561221357612212611c82565b5b600085013567ffffffffffffffff81111561223157612230611c87565b5b61223d87828801611f92565b945050602061224e87828801611cd5565b935050604061225f878288016121e4565b9250506060612270878288016121e4565b91505092959194509250565b60006020828403121561229257612291611c82565b5b600082013567ffffffffffffffff8111156122b0576122af611c87565b5b6122bc84828501611f92565b91505092915050565b600082825260208201905092915050565b60006122e182611d43565b6122eb81856122c5565b93506122fb818560208601611d5f565b61230481611d89565b840191505092915050565b612318816121c3565b82525050565b6123278161209f565b82525050565b600060c082019050818103600083015261234781896122d6565b9050818103602083015261235b81886122d6565b905061236a6040830187612075565b612377606083018661230f565b612384608083018561231e565b81810360a083015261239681846122d6565b9050979650505050505050565b7f4e487b7100000000000000000000000000000000000000000000000000000000600052602260045260246000fd5b600060028204905060018216806123ea57607f821691505b6020821081036123fd576123fc6123a3565b5b50919050565b600081905092915050565b600061241982611d43565b6124238185612403565b9350612433818560208601611d5f565b80840191505092915050565b600061244b828461240e565b915081905092915050565b7f5645524946595f4641494c45445f4c4f434b0000000000000000000000000000600082015250565b600061248c6012836122c5565b915061249782612456565b602082019050919050565b600060608201905081810360008301526124bb8161247f565b90506124ca602083018561230f565b6124d76040830184611c4e565b9392505050565b7f5645524946595f4641494c45445f455849535453000000000000000000000000600082015250565b60006125146014836122c5565b915061251f826124de565b602082019050919050565b6000606082019050818103600083015261254381612507565b9050612552602083018561230f565b61255f6040830184611c4e565b9392505050565b7f5645524946595f535543434553535f4f574e4552000000000000000000000000600082015250565b600061259c6014836122c5565b91506125a782612566565b602082019050919050565b600060608201905081810360008301526125cb8161258f565b90506125da602083018561230f565b6125e76040830184611c4e565b9392505050565b7f5645524946595f4641494c45445f4e4f545f4752414e54454400000000000000600082015250565b60006126246019836122c5565b915061262f826125ee565b602082019050919050565b6000606082019050818103600083015261265381612617565b9050612662602083018561230f565b61266f6040830184611c4e565b9392505050565b7f5645524946595f4641494c45445f455850495245440000000000000000000000600082015250565b60006126ac6015836122c5565b91506126b782612676565b602082019050919050565b600060608201905081810360008301526126db8161269f565b90506126ea602083018561230f565b6126f76040830184611c4e565b9392505050565b7f5645524946595f4641494c45445f444f574e4c4f41445f4c494d495400000000600082015250565b6000612734601c836122c5565b915061273f826126fe565b602082019050919050565b6000606082019050818103600083015261276381612727565b9050612772602083018561230f565b61277f6040830184611c4e565b9392505050565b7f4e487b7100000000000000000000000000000000000000000000000000000000600052601160045260246000fd5b60006127c0826121c3565b91506127cb836121c3565b92508282019050808211156127e3576127e2612786565b5b92915050565b7f5645524946595f535543434553535f5348415245440000000000000000000000600082015250565b600061281f6015836122c5565b915061282a826127e9565b602082019050919050565b6000606082019050818103600083015261284e81612812565b905061285d602083018561230f565b61286a6040830184611c4e565b9392505050565b7f4e6f7420636f6e7472616374206f776e65720000000000000000000000000000600082015250565b60006128a76012836122c5565b91506128b282612871565b602082019050919050565b600060208201905081810360008301526128d68161289a565b9050919050565b7f46696c6520646f6573206e6f7420657869737400000000000000000000000000600082015250565b60006129136013836122c5565b915061291e826128dd565b602082019050919050565b6000602082019050818103600083015261294281612906565b9050919050565b7f4e6f74207468652066696c65206f776e65720000000000000000000000000000600082015250565b600061297f6012836122c5565b915061298a82612949565b602082019050919050565b600060208201905081810360008301526129ae81612972565b9050919050565b7f53797374656d20697320756e64657220656d657267656e6379206c6f636b0000600082015250565b60006129eb601e836122c5565b91506129f6826129b5565b602082019050919050565b60006020820190508181036000830152612a1a816129de565b9050919050565b7f496e76616c6964206e6577206f776e6572206164647265737300000000000000600082015250565b6000612a576019836122c5565b9150612a6282612a21565b602082019050919050565b60006020820190508181036000830152612a8681612a4a565b9050919050565b60008190508160005260206000209050919050565b60006020601f8301049050919050565b600082821b905092915050565b600060088302612aef7fffffffffffffffffffffffffffffffffffffffffffffffffffffffffffffffff82612ab2565b612af98683612ab2565b95508019841693508086168417925050509392505050565b6000819050919050565b6000612b36612b31612b2c846121c3565b612b11565b6121c3565b9050919050565b6000819050919050565b612b5083612b1b565b612b64612b5c82612b3d565b848454612abf565b825550505050565b600090565b612b79612b6c565b612b84818484612b47565b505050565b5b81811015612ba857612b9d600082612b71565b600181019050612b8a565b5050565b601f821115612bed57612bbe81612a8d565b612bc784612aa2565b81016020851015612bd6578190505b612bea612be285612aa2565b830182612b89565b50505b505050565b600082821c905092915050565b6000612c1060001984600802612bf2565b1980831691505092915050565b6000612c298383612bff565b9150826002028217905092915050565b612c4282611d43565b67ffffffffffffffff811115612c5b57612c5a611e95565b5b612c6582546123d2565b612c70828285612bac565b600060209050601f831160018114612ca35760008415612c91578287015190505b612c9b8582612c1d565b865550612d03565b601f198416612cb186612a8d565b60005b82811015612cd957848901518255600182019150602085019450602081019050612cb4565b86831015612cf65784890151612cf2601f891682612bff565b8355505b6001600288020188555050505b505050505050565b7f5452414e534645525f4f574e4552534849500000000000000000000000000000600082015250565b6000612d416012836122c5565b9150612d4c82612d0b565b602082019050919050565b60006060820190508181036000830152612d7081612d34565b9050612d7f602083018561230f565b612d8c6040830184611c4e565b9392505050565b7f46696c6520616c72656164792072656769737465726564000000000000000000600082015250565b6000612dc96017836122c5565b9150612dd482612d93565b602082019050919050565b60006020820190508181036000830152612df881612dbc565b9050919050565b7f4349442063616e6e6f7420626520656d70747900000000000000000000000000600082015250565b6000612e356013836122c5565b9150612e4082612dff565b602082019050919050565b60006020820190508181036000830152612e6481612e28565b9050919050565b7f486173682063616e6e6f7420626520656d707479000000000000000000000000600082015250565b6000612ea16014836122c5565b9150612eac82612e6b565b602082019050919050565b60006020820190508181036000830152612ed081612e94565b9050919050565b60006060820190508181036000830152612ef181866122d6565b90508181036020830152612f0581856122d6565b9050612f14604083018461231e565b949350505050565b7f5245474953544552000000000000000000000000000000000000000000000000600082015250565b6000612f526008836122c5565b9150612f5d82612f1c565b602082019050919050565b60006060820190508181036000830152612f8181612f45565b9050612f90602083018561230f565b612f9d6040830184611c4e565b9392505050565b6000604082019050612fb9600083018561230f565b612fc6602083018461230f565b9392505050565b7f4752414e545f4143434553530000000000000000000000000000000000000000600082015250565b6000613003600c836122c5565b915061300e82612fcd565b602082019050919050565b6000606082019050818103600083015261303281612ff6565b9050613041602083018561230f565b61304e6040830184611c4e565b9392505050565b7f41636365737320776173206e6f74206772616e74656400000000000000000000600082015250565b600061308b6016836122c5565b915061309682613055565b602082019050919050565b600060208201905081810360008301526130ba8161307e565b9050919050565b7f5245564f4b455f41434345535300000000000000000000000000000000000000600082015250565b60006130f7600d836122c5565b9150613102826130c1565b602082019050919050565b60006060820190508181036000830152613126816130ea565b9050613135602083018561230f565b6131426040830184611c4e565b939250505056fea264697066735822122032e7d54c0602a6a3e29d97f5b33764b1da744533a3ba6ec25d9771c76549124764736f6c63430008180033","opcodes":"PUSH1 0x80 PUSH1 0x40 MSTORE PUSH1 0x0 PUSH1 0x3 PUSH1 0x0 PUSH2 0x100 EXP DUP2 SLOAD DUP2 PUSH1 0xFF MUL NOT AND SWAP1 DUP4 ISZERO ISZERO MUL OR SWAP1 SSTORE POP CALLVALUE DUP1 ISZERO PUSH2 0x2B JUMPI PUSH1 0x0 DUP1 REVERT JUMPDEST POP CALLER PUSH1 0x3 PUSH1 0x1 PUSH2 0x100 EXP DUP2 SLOAD DUP2 PUSH20 0xFFFFFFFFFFFFFFFFFFFFFFFFFFFFFFFFFFFFFFFF MUL NOT AND SWAP1 DUP4 PUSH20 0xFFFFFFFFFFFFFFFFFFFFFFFFFFFFFFFFFFFFFFFF AND MUL OR SWAP1 SSTORE POP PUSH2 0x317F DUP1 PUSH2 0x7C PUSH1 0x0 CODECOPY PUSH1 0x0 RETURN INVALID PUSH1 0x80 PUSH1 0x40 MSTORE CALLVALUE DUP1 ISZERO PUSH2 0x10 JUMPI PUSH1 0x0 DUP1 REVERT JUMPDEST POP PUSH1 0x4 CALLDATASIZE LT PUSH2 0x9D JUMPI PUSH1 0x0 CALLDATALOAD PUSH1 0xE0 SHR DUP1 PUSH4 0xCE606EE0 GT PUSH2 0x66 JUMPI DUP1 PUSH4 0xCE606EE0 EQ PUSH2 0x158 JUMPI DUP1 PUSH4 0xD545D563 EQ PUSH2 0x176 JUMPI DUP1 PUSH4 0xD6807BEF EQ PUSH2 0x192 JUMPI DUP1 PUSH4 0xDFE0B5FE EQ PUSH2 0x1AE JUMPI DUP1 PUSH4 0xE0876AA8 EQ PUSH2 0x1CA JUMPI PUSH2 0x9D JUMP JUMPDEST DUP1 PUSH3 0x54D32F EQ PUSH2 0xA2 JUMPI DUP1 PUSH4 0x638442BA EQ PUSH2 0xC0 JUMPI DUP1 PUSH4 0x878B6922 EQ PUSH2 0xF0 JUMPI DUP1 PUSH4 0x9F75C9E0 EQ PUSH2 0x120 JUMPI DUP1 PUSH4 0xC0E793C2 EQ PUSH2 0x13C JUMPI JUMPDEST PUSH1 0x0 DUP1 REVERT JUMPDEST PUSH2 0xAA PUSH2 0x1FF JUMP JUMPDEST PUSH1 0x40 MLOAD PUSH2 0xB7 SWAP2 SWAP1 PUSH2 0x1C5D JUMP JUMPDEST PUSH1 0x40 MLOAD DUP1 SWAP2 SUB SWAP1 RETURN JUMPDEST PUSH2 0xDA PUSH1 0x4 DUP1 CALLDATASIZE SUB DUP2 ADD SWAP1 PUSH2 0xD5 SWAP2 SWAP1 PUSH2 0x1CEA JUMP JUMPDEST PUSH2 0x212 JUMP JUMPDEST PUSH1 0x40 MLOAD PUSH2 0xE7 SWAP2 SWAP1 PUSH2 0x1E69 JUMP JUMPDEST PUSH1 0x40 MLOAD DUP1 SWAP2 SUB SWAP1 RETURN JUMPDEST PUSH2 0x10A PUSH1 0x4 DUP1 CALLDATASIZE SUB DUP2 ADD SWAP1 PUSH2 0x105 SWAP2 SWAP1 PUSH2 0x1FC0 JUMP JUMPDEST PUSH2 0x32A JUMP JUMPDEST PUSH1 0x40 MLOAD PUSH2 0x117 SWAP2 SWAP1 PUSH2 0x1C5D JUMP JUMPDEST PUSH1 0x40 MLOAD DUP1 SWAP2 SUB SWAP1 RETURN JUMPDEST PUSH2 0x13A PUSH1 0x4 DUP1 CALLDATASIZE SUB DUP2 ADD SWAP1 PUSH2 0x135 SWAP2 SWAP1 PUSH2 0x2048 JUMP JUMPDEST PUSH2 0xA1F JUMP JUMPDEST STOP JUMPDEST PUSH2 0x156 PUSH1 0x4 DUP1 CALLDATASIZE SUB DUP2 ADD SWAP1 PUSH2 0x151 SWAP2 SWAP1 PUSH2 0x1FC0 JUMP JUMPDEST PUSH2 0xB1A JUMP JUMPDEST STOP JUMPDEST PUSH2 0x160 PUSH2 0xEAB JUMP JUMPDEST PUSH1 0x40 MLOAD PUSH2 0x16D SWAP2 SWAP1 PUSH2 0x2084 JUMP JUMPDEST PUSH1 0x40 MLOAD DUP1 SWAP2 SUB SWAP1 RETURN JUMPDEST PUSH2 0x190 PUSH1 0x4 DUP1 CALLDATASIZE SUB DUP2 ADD SWAP1 PUSH2 0x18B SWAP2 SWAP1 PUSH2 0x20D8 JUMP JUMPDEST PUSH2 0xED1 JUMP JUMPDEST STOP JUMPDEST PUSH2 0x1AC PUSH1 0x4 DUP1 CALLDATASIZE SUB DUP2 ADD SWAP1 PUSH2 0x1A7 SWAP2 SWAP1 PUSH2 0x21F9 JUMP JUMPDEST PUSH2 0x12A4 JUMP JUMPDEST STOP JUMPDEST PUSH2 0x1C8 PUSH1 0x4 DUP1 CALLDATASIZE SUB DUP2 ADD SWAP1 PUSH2 0x1C3 SWAP2 SWAP1 PUSH2 0x1FC0 JUMP JUMPDEST PUSH2 0x15C7 JUMP JUMPDEST STOP JUMPDEST PUSH2 0x1E4 PUSH1 0x4 DUP1 CALLDATASIZE SUB DUP2 ADD SWAP1 PUSH2 0x1DF SWAP2 SWAP1 PUSH2 0x227C JUMP JUMPDEST PUSH2 0x191C JUMP JUMPDEST PUSH1 0x40 MLOAD PUSH2 0x1F6 SWAP7 SWAP6 SWAP5 SWAP4 SWAP3 SWAP2 SWAP1 PUSH2 0x232D JUMP JUMPDEST PUSH1 0x40 MLOAD DUP1 SWAP2 SUB SWAP1 RETURN JUMPDEST PUSH1 0x3 PUSH1 0x0 SWAP1 SLOAD SWAP1 PUSH2 0x100 EXP SWAP1 DIV PUSH1 0xFF AND DUP2 JUMP JUMPDEST PUSH1 0x60 PUSH1 0x2 PUSH1 0x0 DUP4 PUSH20 0xFFFFFFFFFFFFFFFFFFFFFFFFFFFFFFFFFFFFFFFF AND PUSH20 0xFFFFFFFFFFFFFFFFFFFFFFFFFFFFFFFFFFFFFFFF AND DUP2 MSTORE PUSH1 0x20 ADD SWAP1 DUP2 MSTORE PUSH1 0x20 ADD PUSH1 0x0 KECCAK256 DUP1 SLOAD DUP1 PUSH1 0x20 MUL PUSH1 0x20 ADD PUSH1 0x40 MLOAD SWAP1 DUP2 ADD PUSH1 0x40 MSTORE DUP1 SWAP3 SWAP2 SWAP1 DUP2 DUP2 MSTORE PUSH1 0x20 ADD PUSH1 0x0 SWAP1 JUMPDEST DUP3 DUP3 LT ISZERO PUSH2 0x31F JUMPI DUP4 DUP3 SWAP1 PUSH1 0x0 MSTORE PUSH1 0x20 PUSH1 0x0 KECCAK256 ADD DUP1 SLOAD PUSH2 0x292 SWAP1 PUSH2 0x23D2 JUMP JUMPDEST DUP1 PUSH1 0x1F ADD PUSH1 0x20 DUP1 SWAP2 DIV MUL PUSH1 0x20 ADD PUSH1 0x40 MLOAD SWAP1 DUP2 ADD PUSH1 0x40 MSTORE DUP1 SWAP3 SWAP2 SWAP1 DUP2 DUP2 MSTORE PUSH1 0x20 ADD DUP3 DUP1 SLOAD PUSH2 0x2BE SWAP1 PUSH2 0x23D2 JUMP JUMPDEST DUP1 ISZERO PUSH2 0x30B JUMPI DUP1 PUSH1 0x1F LT PUSH2 0x2E0 JUMPI PUSH2 0x100 DUP1 DUP4 SLOAD DIV MUL DUP4 MSTORE SWAP2 PUSH1 0x20 ADD SWAP2 PUSH2 0x30B JUMP JUMPDEST DUP3 ADD SWAP2 SWAP1 PUSH1 0x0 MSTORE PUSH1 0x20 PUSH1 0x0 KECCAK256 SWAP1 JUMPDEST DUP2 SLOAD DUP2 MSTORE SWAP1 PUSH1 0x1 ADD SWAP1 PUSH1 0x20 ADD DUP1 DUP4 GT PUSH2 0x2EE JUMPI DUP3 SWAP1 SUB PUSH1 0x1F AND DUP3 ADD SWAP2 JUMPDEST POP POP POP POP POP DUP2 MSTORE PUSH1 0x20 ADD SWAP1 PUSH1 0x1 ADD SWAP1 PUSH2 0x273 JUMP JUMPDEST POP POP POP POP SWAP1 POP SWAP2 SWAP1 POP JUMP JUMPDEST PUSH1 0x0 PUSH1 0x3 PUSH1 0x0 SWAP1 SLOAD SWAP1 PUSH2 0x100 EXP SWAP1 DIV PUSH1 0xFF AND ISZERO PUSH2 0x3B1 JUMPI DUP2 PUSH20 0xFFFFFFFFFFFFFFFFFFFFFFFFFFFFFFFFFFFFFFFF AND DUP4 PUSH1 0x40 MLOAD PUSH2 0x366 SWAP2 SWAP1 PUSH2 0x243F JUMP JUMPDEST PUSH1 0x40 MLOAD DUP1 SWAP2 SUB SWAP1 KECCAK256 PUSH32 0x72C9A8E381EAA01836F5DBBF633268CFCF158E238635AD80BA54B27DEB413ADE TIMESTAMP PUSH1 0x0 PUSH1 0x40 MLOAD PUSH2 0x3A0 SWAP3 SWAP2 SWAP1 PUSH2 0x24A2 JUMP JUMPDEST PUSH1 0x40 MLOAD DUP1 SWAP2 SUB SWAP1 LOG3 PUSH1 0x0 SWAP1 POP PUSH2 0xA19 JUMP JUMPDEST PUSH1 0x0 DUP1 DUP5 PUSH1 0x40 MLOAD PUSH2 0x3C2 SWAP2 SWAP1 PUSH2 0x243F JUMP JUMPDEST SWAP1 DUP2 MSTORE PUSH1 0x20 ADD PUSH1 0x40 MLOAD DUP1 SWAP2 SUB SWAP1 KECCAK256 PUSH1 0x40 MLOAD DUP1 PUSH1 0xE0 ADD PUSH1 0x40 MSTORE SWAP1 DUP2 PUSH1 0x0 DUP3 ADD DUP1 SLOAD PUSH2 0x3EB SWAP1 PUSH2 0x23D2 JUMP JUMPDEST DUP1 PUSH1 0x1F ADD PUSH1 0x20 DUP1 SWAP2 DIV MUL PUSH1 0x20 ADD PUSH1 0x40 MLOAD SWAP1 DUP2 ADD PUSH1 0x40 MSTORE DUP1 SWAP3 SWAP2 SWAP1 DUP2 DUP2 MSTORE PUSH1 0x20 ADD DUP3 DUP1 SLOAD PUSH2 0x417 SWAP1 PUSH2 0x23D2 JUMP JUMPDEST DUP1 ISZERO PUSH2 0x464 JUMPI DUP1 PUSH1 0x1F LT PUSH2 0x439 JUMPI PUSH2 0x100 DUP1 DUP4 SLOAD DIV MUL DUP4 MSTORE SWAP2 PUSH1 0x20 ADD SWAP2 PUSH2 0x464 JUMP JUMPDEST DUP3 ADD SWAP2 SWAP1 PUSH1 0x0 MSTORE PUSH1 0x20 PUSH1 0x0 KECCAK256 SWAP1 JUMPDEST DUP2 SLOAD DUP2 MSTORE SWAP1 PUSH1 0x1 ADD SWAP1 PUSH1 0x20 ADD DUP1 DUP4 GT PUSH2 0x447 JUMPI DUP3 SWAP1 SUB PUSH1 0x1F AND DUP3 ADD SWAP2 JUMPDEST POP POP POP POP POP DUP2 MSTORE PUSH1 0x20 ADD PUSH1 0x1 DUP3 ADD DUP1 SLOAD PUSH2 0x47D SWAP1 PUSH2 0x23D2 JUMP JUMPDEST DUP1 PUSH1 0x1F ADD PUSH1 0x20 DUP1 SWAP2 DIV MUL PUSH1 0x20 ADD PUSH1 0x40 MLOAD SWAP1 DUP2 ADD PUSH1 0x40 MSTORE DUP1 SWAP3 SWAP2 SWAP1 DUP2 DUP2 MSTORE PUSH1 0x20 ADD DUP3 DUP1 SLOAD PUSH2 0x4A9 SWAP1 PUSH2 0x23D2 JUMP JUMPDEST DUP1 ISZERO PUSH2 0x4F6 JUMPI DUP1 PUSH1 0x1F LT PUSH2 0x4CB JUMPI PUSH2 0x100 DUP1 DUP4 SLOAD DIV MUL DUP4 MSTORE SWAP2 PUSH1 0x20 ADD SWAP2 PUSH2 0x4F6 JUMP JUMPDEST DUP3 ADD SWAP2 SWAP1 PUSH1 0x0 MSTORE PUSH1 0x20 PUSH1 0x0 KECCAK256 SWAP1 JUMPDEST DUP2 SLOAD DUP2 MSTORE SWAP1 PUSH1 0x1 ADD SWAP1 PUSH1 0x20 ADD DUP1 DUP4 GT PUSH2 0x4D9 JUMPI DUP3 SWAP1 SUB PUSH1 0x1F AND DUP3 ADD SWAP2 JUMPDEST POP POP POP POP POP DUP2 MSTORE PUSH1 0x20 ADD PUSH1 0x2 DUP3 ADD PUSH1 0x0 SWAP1 SLOAD SWAP1 PUSH2 0x100 EXP SWAP1 DIV PUSH20 0xFFFFFFFFFFFFFFFFFFFFFFFFFFFFFFFFFFFFFFFF AND PUSH20 0xFFFFFFFFFFFFFFFFFFFFFFFFFFFFFFFFFFFFFFFF AND PUSH20 0xFFFFFFFFFFFFFFFFFFFFFFFFFFFFFFFFFFFFFFFF AND DUP2 MSTORE PUSH1 0x20 ADD PUSH1 0x3 DUP3 ADD SLOAD DUP2 MSTORE PUSH1 0x20 ADD PUSH1 0x4 DUP3 ADD PUSH1 0x0 SWAP1 SLOAD SWAP1 PUSH2 0x100 EXP SWAP1 DIV PUSH1 0xFF AND PUSH1 0xFF AND PUSH1 0xFF AND DUP2 MSTORE PUSH1 0x20 ADD PUSH1 0x5 DUP3 ADD DUP1 SLOAD PUSH2 0x58C SWAP1 PUSH2 0x23D2 JUMP JUMPDEST DUP1 PUSH1 0x1F ADD PUSH1 0x20 DUP1 SWAP2 DIV MUL PUSH1 0x20 ADD PUSH1 0x40 MLOAD SWAP1 DUP2 ADD PUSH1 0x40 MSTORE DUP1 SWAP3 SWAP2 SWAP1 DUP2 DUP2 MSTORE PUSH1 0x20 ADD DUP3 DUP1 SLOAD PUSH2 0x5B8 SWAP1 PUSH2 0x23D2 JUMP JUMPDEST DUP1 ISZERO PUSH2 0x605 JUMPI DUP1 PUSH1 0x1F LT PUSH2 0x5DA JUMPI PUSH2 0x100 DUP1 DUP4 SLOAD DIV MUL DUP4 MSTORE SWAP2 PUSH1 0x20 ADD SWAP2 PUSH2 0x605 JUMP JUMPDEST DUP3 ADD SWAP2 SWAP1 PUSH1 0x0 MSTORE PUSH1 0x20 PUSH1 0x0 KECCAK256 SWAP1 JUMPDEST DUP2 SLOAD DUP2 MSTORE SWAP1 PUSH1 0x1 ADD SWAP1 PUSH1 0x20 ADD DUP1 DUP4 GT PUSH2 0x5E8 JUMPI DUP3 SWAP1 SUB PUSH1 0x1F AND DUP3 ADD SWAP2 JUMPDEST POP POP POP POP POP DUP2 MSTORE PUSH1 0x20 ADD PUSH1 0x6 DUP3 ADD PUSH1 0x0 SWAP1 SLOAD SWAP1 PUSH2 0x100 EXP SWAP1 DIV PUSH1 0xFF AND ISZERO ISZERO ISZERO ISZERO DUP2 MSTORE POP POP SWAP1 POP DUP1 PUSH1 0xC0 ADD MLOAD PUSH2 0x6A5 JUMPI DUP3 PUSH20 0xFFFFFFFFFFFFFFFFFFFFFFFFFFFFFFFFFFFFFFFF AND DUP5 PUSH1 0x40 MLOAD PUSH2 0x659 SWAP2 SWAP1 PUSH2 0x243F JUMP JUMPDEST PUSH1 0x40 MLOAD DUP1 SWAP2 SUB SWAP1 KECCAK256 PUSH32 0x72C9A8E381EAA01836F5DBBF633268CFCF158E238635AD80BA54B27DEB413ADE TIMESTAMP PUSH1 0x0 PUSH1 0x40 MLOAD PUSH2 0x693 SWAP3 SWAP2 SWAP1 PUSH2 0x252A JUMP JUMPDEST PUSH1 0x40 MLOAD DUP1 SWAP2 SUB SWAP1 LOG3 PUSH1 0x0 SWAP2 POP POP PUSH2 0xA19 JUMP JUMPDEST DUP3 PUSH20 0xFFFFFFFFFFFFFFFFFFFFFFFFFFFFFFFFFFFFFFFF AND DUP2 PUSH1 0x40 ADD MLOAD PUSH20 0xFFFFFFFFFFFFFFFFFFFFFFFFFFFFFFFFFFFFFFFF AND SUB PUSH2 0x74D JUMPI DUP3 PUSH20 0xFFFFFFFFFFFFFFFFFFFFFFFFFFFFFFFFFFFFFFFF AND DUP5 PUSH1 0x40 MLOAD PUSH2 0x701 SWAP2 SWAP1 PUSH2 0x243F JUMP JUMPDEST PUSH1 0x40 MLOAD DUP1 SWAP2 SUB SWAP1 KECCAK256 PUSH32 0x72C9A8E381EAA01836F5DBBF633268CFCF158E238635AD80BA54B27DEB413ADE TIMESTAMP PUSH1 0x1 PUSH1 0x40 MLOAD PUSH2 0x73B SWAP3 SWAP2 SWAP1 PUSH2 0x25B2 JUMP JUMPDEST PUSH1 0x40 MLOAD DUP1 SWAP2 SUB SWAP1 LOG3 PUSH1 0x1 SWAP2 POP POP PUSH2 0xA19 JUMP JUMPDEST PUSH1 0x0 PUSH1 0x1 DUP6 PUSH1 0x40 MLOAD PUSH2 0x75F SWAP2 SWAP1 PUSH2 0x243F JUMP JUMPDEST SWAP1 DUP2 MSTORE PUSH1 0x20 ADD PUSH1 0x40 MLOAD DUP1 SWAP2 SUB SWAP1 KECCAK256 PUSH1 0x0 DUP6 PUSH20 0xFFFFFFFFFFFFFFFFFFFFFFFFFFFFFFFFFFFFFFFF AND PUSH20 0xFFFFFFFFFFFFFFFFFFFFFFFFFFFFFFFFFFFFFFFF AND DUP2 MSTORE PUSH1 0x20 ADD SWAP1 DUP2 MSTORE PUSH1 0x20 ADD PUSH1 0x0 KECCAK256 SWAP1 POP DUP1 PUSH1 0x0 ADD PUSH1 0x0 SWAP1 SLOAD SWAP1 PUSH2 0x100 EXP SWAP1 DIV PUSH1 0xFF AND PUSH2 0x834 JUMPI DUP4 PUSH20 0xFFFFFFFFFFFFFFFFFFFFFFFFFFFFFFFFFFFFFFFF AND DUP6 PUSH1 0x40 MLOAD PUSH2 0x7E7 SWAP2 SWAP1 PUSH2 0x243F JUMP JUMPDEST PUSH1 0x40 MLOAD DUP1 SWAP2 SUB SWAP1 KECCAK256 PUSH32 0x72C9A8E381EAA01836F5DBBF633268CFCF158E238635AD80BA54B27DEB413ADE TIMESTAMP PUSH1 0x0 PUSH1 0x40 MLOAD PUSH2 0x821 SWAP3 SWAP2 SWAP1 PUSH2 0x263A JUMP JUMPDEST PUSH1 0x40 MLOAD DUP1 SWAP2 SUB SWAP1 LOG3 PUSH1 0x0 SWAP3 POP POP POP PUSH2 0xA19 JUMP JUMPDEST PUSH1 0x0 DUP2 PUSH1 0x1 ADD SLOAD GT DUP1 ISZERO PUSH2 0x84B JUMPI POP DUP1 PUSH1 0x1 ADD SLOAD TIMESTAMP GT JUMPDEST ISZERO PUSH2 0x8DF JUMPI PUSH1 0x0 DUP2 PUSH1 0x0 ADD PUSH1 0x0 PUSH2 0x100 EXP DUP2 SLOAD DUP2 PUSH1 0xFF MUL NOT AND SWAP1 DUP4 ISZERO ISZERO MUL OR SWAP1 SSTORE POP DUP4 PUSH20 0xFFFFFFFFFFFFFFFFFFFFFFFFFFFFFFFFFFFFFFFF AND DUP6 PUSH1 0x40 MLOAD PUSH2 0x892 SWAP2 SWAP1 PUSH2 0x243F JUMP JUMPDEST PUSH1 0x40 MLOAD DUP1 SWAP2 SUB SWAP1 KECCAK256 PUSH32 0x72C9A8E381EAA01836F5DBBF633268CFCF158E238635AD80BA54B27DEB413ADE TIMESTAMP PUSH1 0x0 PUSH1 0x40 MLOAD PUSH2 0x8CC SWAP3 SWAP2 SWAP1 PUSH2 0x26C2 JUMP JUMPDEST PUSH1 0x40 MLOAD DUP1 SWAP2 SUB SWAP1 LOG3 PUSH1 0x0 SWAP3 POP POP POP PUSH2 0xA19 JUMP JUMPDEST PUSH1 0x0 DUP2 PUSH1 0x2 ADD SLOAD GT DUP1 ISZERO PUSH2 0x8FB JUMPI POP DUP1 PUSH1 0x2 ADD SLOAD DUP2 PUSH1 0x3 ADD SLOAD LT ISZERO JUMPDEST ISZERO PUSH2 0x98F JUMPI PUSH1 0x0 DUP2 PUSH1 0x0 ADD PUSH1 0x0 PUSH2 0x100 EXP DUP2 SLOAD DUP2 PUSH1 0xFF MUL NOT AND SWAP1 DUP4 ISZERO ISZERO MUL OR SWAP1 SSTORE POP DUP4 PUSH20 0xFFFFFFFFFFFFFFFFFFFFFFFFFFFFFFFFFFFFFFFF AND DUP6 PUSH1 0x40 MLOAD PUSH2 0x942 SWAP2 SWAP1 PUSH2 0x243F JUMP JUMPDEST PUSH1 0x40 MLOAD DUP1 SWAP2 SUB SWAP1 KECCAK256 PUSH32 0x72C9A8E381EAA01836F5DBBF633268CFCF158E238635AD80BA54B27DEB413ADE TIMESTAMP PUSH1 0x0 PUSH1 0x40 MLOAD PUSH2 0x97C SWAP3 SWAP2 SWAP1 PUSH2 0x274A JUMP JUMPDEST PUSH1 0x40 MLOAD DUP1 SWAP2 SUB SWAP1 LOG3 PUSH1 0x0 SWAP3 POP POP POP PUSH2 0xA19 JUMP JUMPDEST PUSH1 0x1 DUP2 PUSH1 0x3 ADD PUSH1 0x0 DUP3 DUP3 SLOAD PUSH2 0x9A4 SWAP2 SWAP1 PUSH2 0x27B5 JUMP JUMPDEST SWAP3 POP POP DUP2 SWAP1 SSTORE POP DUP4 PUSH20 0xFFFFFFFFFFFFFFFFFFFFFFFFFFFFFFFFFFFFFFFF AND DUP6 PUSH1 0x40 MLOAD PUSH2 0x9D0 SWAP2 SWAP1 PUSH2 0x243F JUMP JUMPDEST PUSH1 0x40 MLOAD DUP1 SWAP2 SUB SWAP1 KECCAK256 PUSH32 0x72C9A8E381EAA01836F5DBBF633268CFCF158E238635AD80BA54B27DEB413ADE TIMESTAMP PUSH1 0x1 PUSH1 0x40 MLOAD PUSH2 0xA0A SWAP3 SWAP2 SWAP1 PUSH2 0x2835 JUMP JUMPDEST PUSH1 0x40 MLOAD DUP1 SWAP2 SUB SWAP1 LOG3 PUSH1 0x1 SWAP3 POP POP POP JUMPDEST SWAP3 SWAP2 POP POP JUMP JUMPDEST PUSH1 0x3 PUSH1 0x1 SWAP1 SLOAD SWAP1 PUSH2 0x100 EXP SWAP1 DIV PUSH20 0xFFFFFFFFFFFFFFFFFFFFFFFFFFFFFFFFFFFFFFFF AND PUSH20 0xFFFFFFFFFFFFFFFFFFFFFFFFFFFFFFFFFFFFFFFF AND CALLER PUSH20 0xFFFFFFFFFFFFFFFFFFFFFFFFFFFFFFFFFFFFFFFF AND EQ PUSH2 0xAAF JUMPI PUSH1 0x40 MLOAD PUSH32 0x8C379A000000000000000000000000000000000000000000000000000000000 DUP2 MSTORE PUSH1 0x4 ADD PUSH2 0xAA6 SWAP1 PUSH2 0x28BD JUMP JUMPDEST PUSH1 0x40 MLOAD DUP1 SWAP2 SUB SWAP1 REVERT JUMPDEST DUP1 PUSH1 0x3 PUSH1 0x0 PUSH2 0x100 EXP DUP2 SLOAD DUP2 PUSH1 0xFF MUL NOT AND SWAP1 DUP4 ISZERO ISZERO MUL OR SWAP1 SSTORE POP CALLER PUSH20 0xFFFFFFFFFFFFFFFFFFFFFFFFFFFFFFFFFFFFFFFF AND PUSH32 0xB61D70E9CB0DB4B59A305ED69D5C2E95B4803D94D28D82439AAC3F7F52FD161D DUP3 PUSH1 0x40 MLOAD PUSH2 0xB0F SWAP2 SWAP1 PUSH2 0x1C5D JUMP JUMPDEST PUSH1 0x40 MLOAD DUP1 SWAP2 SUB SWAP1 LOG2 POP JUMP JUMPDEST DUP2 PUSH1 0x0 DUP2 PUSH1 0x40 MLOAD PUSH2 0xB2B SWAP2 SWAP1 PUSH2 0x243F JUMP JUMPDEST SWAP1 DUP2 MSTORE PUSH1 0x20 ADD PUSH1 0x40 MLOAD DUP1 SWAP2 SUB SWAP1 KECCAK256 PUSH1 0x6 ADD PUSH1 0x0 SWAP1 SLOAD SWAP1 PUSH2 0x100 EXP SWAP1 DIV PUSH1 0xFF AND PUSH2 0xB89 JUMPI PUSH1 0x40 MLOAD PUSH32 0x8C379A000000000000000000000000000000000000000000000000000000000 DUP2 MSTORE PUSH1 0x4 ADD PUSH2 0xB80 SWAP1 PUSH2 0x2929 JUMP JUMPDEST PUSH1 0x40 MLOAD DUP1 SWAP2 SUB SWAP1 REVERT JUMPDEST CALLER PUSH20 0xFFFFFFFFFFFFFFFFFFFFFFFFFFFFFFFFFFFFFFFF AND PUSH1 0x0 DUP3 PUSH1 0x40 MLOAD PUSH2 0xBB0 SWAP2 SWAP1 PUSH2 0x243F JUMP JUMPDEST SWAP1 DUP2 MSTORE PUSH1 0x20 ADD PUSH1 0x40 MLOAD DUP1 SWAP2 SUB SWAP1 KECCAK256 PUSH1 0x2 ADD PUSH1 0x0 SWAP1 SLOAD SWAP1 PUSH2 0x100 EXP SWAP1 DIV PUSH20 0xFFFFFFFFFFFFFFFFFFFFFFFFFFFFFFFFFFFFFFFF AND PUSH20 0xFFFFFFFFFFFFFFFFFFFFFFFFFFFFFFFFFFFFFFFF AND EQ PUSH2 0xC38 JUMPI PUSH1 0x40 MLOAD PUSH32 0x8C379A000000000000000000000000000000000000000000000000000000000 DUP2 MSTORE PUSH1 0x4 ADD PUSH2 0xC2F SWAP1 PUSH2 0x2995 JUMP JUMPDEST PUSH1 0x40 MLOAD DUP1 SWAP2 SUB SWAP1 REVERT JUMPDEST PUSH1 0x3 PUSH1 0x0 SWAP1 SLOAD SWAP1 PUSH2 0x100 EXP SWAP1 DIV PUSH1 0xFF AND ISZERO PUSH2 0xC88 JUMPI PUSH1 0x40 MLOAD PUSH32 0x8C379A000000000000000000000000000000000000000000000000000000000 DUP2 MSTORE PUSH1 0x4 ADD PUSH2 0xC7F SWAP1 PUSH2 0x2A01 JUMP JUMPDEST PUSH1 0x40 MLOAD DUP1 SWAP2 SUB SWAP1 REVERT JUMPDEST PUSH1 0x0 PUSH20 0xFFFFFFFFFFFFFFFFFFFFFFFFFFFFFFFFFFFFFFFF AND DUP3 PUSH20 0xFFFFFFFFFFFFFFFFFFFFFFFFFFFFFFFFFFFFFFFF AND SUB PUSH2 0xCF7 JUMPI PUSH1 0x40 MLOAD PUSH32 0x8C379A000000000000000000000000000000000000000000000000000000000 DUP2 MSTORE PUSH1 0x4 ADD PUSH2 0xCEE SWAP1 PUSH2 0x2A6D JUMP JUMPDEST PUSH1 0x40 MLOAD DUP1 SWAP2 SUB SWAP1 REVERT JUMPDEST PUSH1 0x0 CALLER SWAP1 POP DUP3 PUSH1 0x0 DUP6 PUSH1 0x40 MLOAD PUSH2 0xD0D SWAP2 SWAP1 PUSH2 0x243F JUMP JUMPDEST SWAP1 DUP2 MSTORE PUSH1 0x20 ADD PUSH1 0x40 MLOAD DUP1 SWAP2 SUB SWAP1 KECCAK256 PUSH1 0x2 ADD PUSH1 0x0 PUSH2 0x100 EXP DUP2 SLOAD DUP2 PUSH20 0xFFFFFFFFFFFFFFFFFFFFFFFFFFFFFFFFFFFFFFFF MUL NOT AND SWAP1 DUP4 PUSH20 0xFFFFFFFFFFFFFFFFFFFFFFFFFFFFFFFFFFFFFFFF AND MUL OR SWAP1 SSTORE POP PUSH1 0x2 PUSH1 0x0 DUP5 PUSH20 0xFFFFFFFFFFFFFFFFFFFFFFFFFFFFFFFFFFFFFFFF AND PUSH20 0xFFFFFFFFFFFFFFFFFFFFFFFFFFFFFFFFFFFFFFFF AND DUP2 MSTORE PUSH1 0x20 ADD SWAP1 DUP2 MSTORE PUSH1 0x20 ADD PUSH1 0x0 KECCAK256 DUP5 SWAP1 DUP1 PUSH1 0x1 DUP2 SLOAD ADD DUP1 DUP3 SSTORE DUP1 SWAP2 POP POP PUSH1 0x1 SWAP1 SUB SWAP1 PUSH1 0x0 MSTORE PUSH1 0x20 PUSH1 0x0 KECCAK256 ADD PUSH1 0x0 SWAP1 SWAP2 SWAP1 SWAP2 SWAP1 SWAP2 POP SWAP1 DUP2 PUSH2 0xDCD SWAP2 SWAP1 PUSH2 0x2C39 JUMP JUMPDEST POP DUP3 PUSH20 0xFFFFFFFFFFFFFFFFFFFFFFFFFFFFFFFFFFFFFFFF AND DUP2 PUSH20 0xFFFFFFFFFFFFFFFFFFFFFFFFFFFFFFFFFFFFFFFF AND DUP6 PUSH1 0x40 MLOAD PUSH2 0xE0A SWAP2 SWAP1 PUSH2 0x243F JUMP JUMPDEST PUSH1 0x40 MLOAD DUP1 SWAP2 SUB SWAP1 KECCAK256 PUSH32 0x6840904F5B31827F74E1497360DA245F56E530C8C3DE3163A2D31F11493273C6 PUSH1 0x40 MLOAD PUSH1 0x40 MLOAD DUP1 SWAP2 SUB SWAP1 LOG4 DUP1 PUSH20 0xFFFFFFFFFFFFFFFFFFFFFFFFFFFFFFFFFFFFFFFF AND DUP5 PUSH1 0x40 MLOAD PUSH2 0xE63 SWAP2 SWAP1 PUSH2 0x243F JUMP JUMPDEST PUSH1 0x40 MLOAD DUP1 SWAP2 SUB SWAP1 KECCAK256 PUSH32 0x72C9A8E381EAA01836F5DBBF633268CFCF158E238635AD80BA54B27DEB413ADE TIMESTAMP PUSH1 0x1 PUSH1 0x40 MLOAD PUSH2 0xE9D SWAP3 SWAP2 SWAP1 PUSH2 0x2D57 JUMP JUMPDEST PUSH1 0x40 MLOAD DUP1 SWAP2 SUB SWAP1 LOG3 POP POP POP POP JUMP JUMPDEST PUSH1 0x3 PUSH1 0x1 SWAP1 SLOAD SWAP1 PUSH2 0x100 EXP SWAP1 DIV PUSH20 0xFFFFFFFFFFFFFFFFFFFFFFFFFFFFFFFFFFFFFFFF AND DUP2 JUMP JUMPDEST PUSH1 0x3 PUSH1 0x0 SWAP1 SLOAD SWAP1 PUSH2 0x100 EXP SWAP1 DIV PUSH1 0xFF AND ISZERO PUSH2 0xF21 JUMPI PUSH1 0x40 MLOAD PUSH32 0x8C379A000000000000000000000000000000000000000000000000000000000 DUP2 MSTORE PUSH1 0x4 ADD PUSH2 0xF18 SWAP1 PUSH2 0x2A01 JUMP JUMPDEST PUSH1 0x40 MLOAD DUP1 SWAP2 SUB SWAP1 REVERT JUMPDEST PUSH1 0x0 DUP6 PUSH1 0x40 MLOAD PUSH2 0xF31 SWAP2 SWAP1 PUSH2 0x243F JUMP JUMPDEST SWAP1 DUP2 MSTORE PUSH1 0x20 ADD PUSH1 0x40 MLOAD DUP1 SWAP2 SUB SWAP1 KECCAK256 PUSH1 0x6 ADD PUSH1 0x0 SWAP1 SLOAD SWAP1 PUSH2 0x100 EXP SWAP1 DIV PUSH1 0xFF AND ISZERO PUSH2 0xF90 JUMPI PUSH1 0x40 MLOAD PUSH32 0x8C379A000000000000000000000000000000000000000000000000000000000 DUP2 MSTORE PUSH1 0x4 ADD PUSH2 0xF87 SWAP1 PUSH2 0x2DDF JUMP JUMPDEST PUSH1 0x40 MLOAD DUP1 SWAP2 SUB SWAP1 REVERT JUMPDEST PUSH1 0x0 DUP5 MLOAD GT PUSH2 0xFD4 JUMPI PUSH1 0x40 MLOAD PUSH32 0x8C379A000000000000000000000000000000000000000000000000000000000 DUP2 MSTORE PUSH1 0x4 ADD PUSH2 0xFCB SWAP1 PUSH2 0x2E4B JUMP JUMPDEST PUSH1 0x40 MLOAD DUP1 SWAP2 SUB SWAP1 REVERT JUMPDEST PUSH1 0x0 DUP4 MLOAD GT PUSH2 0x1018 JUMPI PUSH1 0x40 MLOAD PUSH32 0x8C379A000000000000000000000000000000000000000000000000000000000 DUP2 MSTORE PUSH1 0x4 ADD PUSH2 0x100F SWAP1 PUSH2 0x2EB7 JUMP JUMPDEST PUSH1 0x40 MLOAD DUP1 SWAP2 SUB SWAP1 REVERT JUMPDEST PUSH1 0x40 MLOAD DUP1 PUSH1 0xE0 ADD PUSH1 0x40 MSTORE DUP1 DUP6 DUP2 MSTORE PUSH1 0x20 ADD DUP5 DUP2 MSTORE PUSH1 0x20 ADD CALLER PUSH20 0xFFFFFFFFFFFFFFFFFFFFFFFFFFFFFFFFFFFFFFFF AND DUP2 MSTORE PUSH1 0x20 ADD TIMESTAMP DUP2 MSTORE PUSH1 0x20 ADD DUP4 PUSH1 0xFF AND DUP2 MSTORE PUSH1 0x20 ADD DUP3 DUP2 MSTORE PUSH1 0x20 ADD PUSH1 0x1 ISZERO ISZERO DUP2 MSTORE POP PUSH1 0x0 DUP7 PUSH1 0x40 MLOAD PUSH2 0x1077 SWAP2 SWAP1 PUSH2 0x243F JUMP JUMPDEST SWAP1 DUP2 MSTORE PUSH1 0x20 ADD PUSH1 0x40 MLOAD DUP1 SWAP2 SUB SWAP1 KECCAK256 PUSH1 0x0 DUP3 ADD MLOAD DUP2 PUSH1 0x0 ADD SWAP1 DUP2 PUSH2 0x109A SWAP2 SWAP1 PUSH2 0x2C39 JUMP JUMPDEST POP PUSH1 0x20 DUP3 ADD MLOAD DUP2 PUSH1 0x1 ADD SWAP1 DUP2 PUSH2 0x10B0 SWAP2 SWAP1 PUSH2 0x2C39 JUMP JUMPDEST POP PUSH1 0x40 DUP3 ADD MLOAD DUP2 PUSH1 0x2 ADD PUSH1 0x0 PUSH2 0x100 EXP DUP2 SLOAD DUP2 PUSH20 0xFFFFFFFFFFFFFFFFFFFFFFFFFFFFFFFFFFFFFFFF MUL NOT AND SWAP1 DUP4 PUSH20 0xFFFFFFFFFFFFFFFFFFFFFFFFFFFFFFFFFFFFFFFF AND MUL OR SWAP1 SSTORE POP PUSH1 0x60 DUP3 ADD MLOAD DUP2 PUSH1 0x3 ADD SSTORE PUSH1 0x80 DUP3 ADD MLOAD DUP2 PUSH1 0x4 ADD PUSH1 0x0 PUSH2 0x100 EXP DUP2 SLOAD DUP2 PUSH1 0xFF MUL NOT AND SWAP1 DUP4 PUSH1 0xFF AND MUL OR SWAP1 SSTORE POP PUSH1 0xA0 DUP3 ADD MLOAD DUP2 PUSH1 0x5 ADD SWAP1 DUP2 PUSH2 0x1138 SWAP2 SWAP1 PUSH2 0x2C39 JUMP JUMPDEST POP PUSH1 0xC0 DUP3 ADD MLOAD DUP2 PUSH1 0x6 ADD PUSH1 0x0 PUSH2 0x100 EXP DUP2 SLOAD DUP2 PUSH1 0xFF MUL NOT AND SWAP1 DUP4 ISZERO ISZERO MUL OR SWAP1 SSTORE POP SWAP1 POP POP PUSH1 0x2 PUSH1 0x0 CALLER PUSH20 0xFFFFFFFFFFFFFFFFFFFFFFFFFFFFFFFFFFFFFFFF AND PUSH20 0xFFFFFFFFFFFFFFFFFFFFFFFFFFFFFFFFFFFFFFFF AND DUP2 MSTORE PUSH1 0x20 ADD SWAP1 DUP2 MSTORE PUSH1 0x20 ADD PUSH1 0x0 KECCAK256 DUP6 SWAP1 DUP1 PUSH1 0x1 DUP2 SLOAD ADD DUP1 DUP3 SSTORE DUP1 SWAP2 POP POP PUSH1 0x1 SWAP1 SUB SWAP1 PUSH1 0x0 MSTORE PUSH1 0x20 PUSH1 0x0 KECCAK256 ADD PUSH1 0x0 SWAP1 SWAP2 SWAP1 SWAP2 SWAP1 SWAP2 POP SWAP1 DUP2 PUSH2 0x11CD SWAP2 SWAP1 PUSH2 0x2C39 JUMP JUMPDEST POP CALLER PUSH20 0xFFFFFFFFFFFFFFFFFFFFFFFFFFFFFFFFFFFFFFFF AND DUP6 PUSH1 0x40 MLOAD PUSH2 0x11F3 SWAP2 SWAP1 PUSH2 0x243F JUMP JUMPDEST PUSH1 0x40 MLOAD DUP1 SWAP2 SUB SWAP1 KECCAK256 PUSH32 0xB84DFC9C4516B569541A44F11A8E4D59F7331FD083BF96119C58E7516229E627 DUP7 DUP7 DUP7 PUSH1 0x40 MLOAD PUSH2 0x122E SWAP4 SWAP3 SWAP2 SWAP1 PUSH2 0x2ED7 JUMP JUMPDEST PUSH1 0x40 MLOAD DUP1 SWAP2 SUB SWAP1 LOG3 CALLER PUSH20 0xFFFFFFFFFFFFFFFFFFFFFFFFFFFFFFFFFFFFFFFF AND DUP6 PUSH1 0x40 MLOAD PUSH2 0x125B SWAP2 SWAP1 PUSH2 0x243F JUMP JUMPDEST PUSH1 0x40 MLOAD DUP1 SWAP2 SUB SWAP1 KECCAK256 PUSH32 0x72C9A8E381EAA01836F5DBBF633268CFCF158E238635AD80BA54B27DEB413ADE TIMESTAMP PUSH1 0x1 PUSH1 0x40 MLOAD PUSH2 0x1295 SWAP3 SWAP2 SWAP1 PUSH2 0x2F68 JUMP JUMPDEST PUSH1 0x40 MLOAD DUP1 SWAP2 SUB SWAP1 LOG3 POP POP POP POP POP JUMP JUMPDEST DUP4 PUSH1 0x0 DUP2 PUSH1 0x40 MLOAD PUSH2 0x12B5 SWAP2 SWAP1 PUSH2 0x243F JUMP JUMPDEST SWAP1 DUP2 MSTORE PUSH1 0x20 ADD PUSH1 0x40 MLOAD DUP1 SWAP2 SUB SWAP1 KECCAK256 PUSH1 0x6 ADD PUSH1 0x0 SWAP1 SLOAD SWAP1 PUSH2 0x100 EXP SWAP1 DIV PUSH1 0xFF AND PUSH2 0x1313 JUMPI PUSH1 0x40 MLOAD PUSH32 0x8C379A000000000000000000000000000000000000000000000000000000000 DUP2 MSTORE PUSH1 0x4 ADD PUSH2 0x130A SWAP1 PUSH2 0x2929 JUMP JUMPDEST PUSH1 0x40 MLOAD DUP1 SWAP2 SUB SWAP1 REVERT JUMPDEST CALLER PUSH20 0xFFFFFFFFFFFFFFFFFFFFFFFFFFFFFFFFFFFFFFFF AND PUSH1 0x0 DUP3 PUSH1 0x40 MLOAD PUSH2 0x133A SWAP2 SWAP1 PUSH2 0x243F JUMP JUMPDEST SWAP1 DUP2 MSTORE PUSH1 0x20 ADD PUSH1 0x40 MLOAD DUP1 SWAP2 SUB SWAP1 KECCAK256 PUSH1 0x2 ADD PUSH1 0x0 SWAP1 SLOAD SWAP1 PUSH2 0x100 EXP SWAP1 DIV PUSH20 0xFFFFFFFFFFFFFFFFFFFFFFFFFFFFFFFFFFFFFFFF AND PUSH20 0xFFFFFFFFFFFFFFFFFFFFFFFFFFFFFFFFFFFFFFFF AND EQ PUSH2 0x13C2 JUMPI PUSH1 0x40 MLOAD PUSH32 0x8C379A000000000000000000000000000000000000000000000000000000000 DUP2 MSTORE PUSH1 0x4 ADD PUSH2 0x13B9 SWAP1 PUSH2 0x2995 JUMP JUMPDEST PUSH1 0x40 MLOAD DUP1 SWAP2 SUB SWAP1 REVERT JUMPDEST PUSH1 0x3 PUSH1 0x0 SWAP1 SLOAD SWAP1 PUSH2 0x100 EXP SWAP1 DIV PUSH1 0xFF AND ISZERO PUSH2 0x1412 JUMPI PUSH1 0x40 MLOAD PUSH32 0x8C379A000000000000000000000000000000000000000000000000000000000 DUP2 MSTORE PUSH1 0x4 ADD PUSH2 0x1409 SWAP1 PUSH2 0x2A01 JUMP JUMPDEST PUSH1 0x40 MLOAD DUP1 SWAP2 SUB SWAP1 REVERT JUMPDEST PUSH1 0x0 DUP1 DUP5 GT PUSH2 0x1422 JUMPI PUSH1 0x0 PUSH2 0x142F JUMP JUMPDEST DUP4 TIMESTAMP PUSH2 0x142E SWAP2 SWAP1 PUSH2 0x27B5 JUMP JUMPDEST JUMPDEST SWAP1 POP PUSH1 0x40 MLOAD DUP1 PUSH1 0x80 ADD PUSH1 0x40 MSTORE DUP1 PUSH1 0x1 ISZERO ISZERO DUP2 MSTORE PUSH1 0x20 ADD DUP3 DUP2 MSTORE PUSH1 0x20 ADD DUP5 DUP2 MSTORE PUSH1 0x20 ADD PUSH1 0x0 DUP2 MSTORE POP PUSH1 0x1 DUP8 PUSH1 0x40 MLOAD PUSH2 0x1466 SWAP2 SWAP1 PUSH2 0x243F JUMP JUMPDEST SWAP1 DUP2 MSTORE PUSH1 0x20 ADD PUSH1 0x40 MLOAD DUP1 SWAP2 SUB SWAP1 KECCAK256 PUSH1 0x0 DUP8 PUSH20 0xFFFFFFFFFFFFFFFFFFFFFFFFFFFFFFFFFFFFFFFF AND PUSH20 0xFFFFFFFFFFFFFFFFFFFFFFFFFFFFFFFFFFFFFFFF AND DUP2 MSTORE PUSH1 0x20 ADD SWAP1 DUP2 MSTORE PUSH1 0x20 ADD PUSH1 0x0 KECCAK256 PUSH1 0x0 DUP3 ADD MLOAD DUP2 PUSH1 0x0 ADD PUSH1 0x0 PUSH2 0x100 EXP DUP2 SLOAD DUP2 PUSH1 0xFF MUL NOT AND SWAP1 DUP4 ISZERO ISZERO MUL OR SWAP1 SSTORE POP PUSH1 0x20 DUP3 ADD MLOAD DUP2 PUSH1 0x1 ADD SSTORE PUSH1 0x40 DUP3 ADD MLOAD DUP2 PUSH1 0x2 ADD SSTORE PUSH1 0x60 DUP3 ADD MLOAD DUP2 PUSH1 0x3 ADD SSTORE SWAP1 POP POP DUP5 PUSH20 0xFFFFFFFFFFFFFFFFFFFFFFFFFFFFFFFFFFFFFFFF AND DUP7 PUSH1 0x40 MLOAD PUSH2 0x1517 SWAP2 SWAP1 PUSH2 0x243F JUMP JUMPDEST PUSH1 0x40 MLOAD DUP1 SWAP2 SUB SWAP1 KECCAK256 PUSH32 0x425F57BE9EC0DD5E4A68D1F117E18955FCB898798A3CE53BDE57782FF5CC97EE DUP4 DUP7 PUSH1 0x40 MLOAD PUSH2 0x1550 SWAP3 SWAP2 SWAP1 PUSH2 0x2FA4 JUMP JUMPDEST PUSH1 0x40 MLOAD DUP1 SWAP2 SUB SWAP1 LOG3 DUP5 PUSH20 0xFFFFFFFFFFFFFFFFFFFFFFFFFFFFFFFFFFFFFFFF AND DUP7 PUSH1 0x40 MLOAD PUSH2 0x157D SWAP2 SWAP1 PUSH2 0x243F JUMP JUMPDEST PUSH1 0x40 MLOAD DUP1 SWAP2 SUB SWAP1 KECCAK256 PUSH32 0x72C9A8E381EAA01836F5DBBF633268CFCF158E238635AD80BA54B27DEB413ADE TIMESTAMP PUSH1 0x1 PUSH1 0x40 MLOAD PUSH2 0x15B7 SWAP3 SWAP2 SWAP1 PUSH2 0x3019 JUMP JUMPDEST PUSH1 0x40 MLOAD DUP1 SWAP2 SUB SWAP1 LOG3 POP POP POP POP POP POP JUMP JUMPDEST DUP2 PUSH1 0x0 DUP2 PUSH1 0x40 MLOAD PUSH2 0x15D8 SWAP2 SWAP1 PUSH2 0x243F JUMP JUMPDEST SWAP1 DUP2 MSTORE PUSH1 0x20 ADD PUSH1 0x40 MLOAD DUP1 SWAP2 SUB SWAP1 KECCAK256 PUSH1 0x6 ADD PUSH1 0x0 SWAP1 SLOAD SWAP1 PUSH2 0x100 EXP SWAP1 DIV PUSH1 0xFF AND PUSH2 0x1636 JUMPI PUSH1 0x40 MLOAD PUSH32 0x8C379A000000000000000000000000000000000000000000000000000000000 DUP2 MSTORE PUSH1 0x4 ADD PUSH2 0x162D SWAP1 PUSH2 0x2929 JUMP JUMPDEST PUSH1 0x40 MLOAD DUP1 SWAP2 SUB SWAP1 REVERT JUMPDEST CALLER PUSH20 0xFFFFFFFFFFFFFFFFFFFFFFFFFFFFFFFFFFFFFFFF AND PUSH1 0x0 DUP3 PUSH1 0x40 MLOAD PUSH2 0x165D SWAP2 SWAP1 PUSH2 0x243F JUMP JUMPDEST SWAP1 DUP2 MSTORE PUSH1 0x20 ADD PUSH1 0x40 MLOAD DUP1 SWAP2 SUB SWAP1 KECCAK256 PUSH1 0x2 ADD PUSH1 0x0 SWAP1 SLOAD SWAP1 PUSH2 0x100 EXP SWAP1 DIV PUSH20 0xFFFFFFFFFFFFFFFFFFFFFFFFFFFFFFFFFFFFFFFF AND PUSH20 0xFFFFFFFFFFFFFFFFFFFFFFFFFFFFFFFFFFFFFFFF AND EQ PUSH2 0x16E5 JUMPI PUSH1 0x40 MLOAD PUSH32 0x8C379A000000000000000000000000000000000000000000000000000000000 DUP2 MSTORE PUSH1 0x4 ADD PUSH2 0x16DC SWAP1 PUSH2 0x2995 JUMP JUMPDEST PUSH1 0x40 MLOAD DUP1 SWAP2 SUB SWAP1 REVERT JUMPDEST PUSH1 0x3 PUSH1 0x0 SWAP1 SLOAD SWAP1 PUSH2 0x100 EXP SWAP1 DIV PUSH1 0xFF AND ISZERO PUSH2 0x1735 JUMPI PUSH1 0x40 MLOAD PUSH32 0x8C379A000000000000000000000000000000000000000000000000000000000 DUP2 MSTORE PUSH1 0x4 ADD PUSH2 0x172C SWAP1 PUSH2 0x2A01 JUMP JUMPDEST PUSH1 0x40 MLOAD DUP1 SWAP2 SUB SWAP1 REVERT JUMPDEST PUSH1 0x1 DUP4 PUSH1 0x40 MLOAD PUSH2 0x1745 SWAP2 SWAP1 PUSH2 0x243F JUMP JUMPDEST SWAP1 DUP2 MSTORE PUSH1 0x20 ADD PUSH1 0x40 MLOAD DUP1 SWAP2 SUB SWAP1 KECCAK256 PUSH1 0x0 DUP4 PUSH20 0xFFFFFFFFFFFFFFFFFFFFFFFFFFFFFFFFFFFFFFFF AND PUSH20 0xFFFFFFFFFFFFFFFFFFFFFFFFFFFFFFFFFFFFFFFF AND DUP2 MSTORE PUSH1 0x20 ADD SWAP1 DUP2 MSTORE PUSH1 0x20 ADD PUSH1 0x0 KECCAK256 PUSH1 0x0 ADD PUSH1 0x0 SWAP1 SLOAD SWAP1 PUSH2 0x100 EXP SWAP1 DIV PUSH1 0xFF AND PUSH2 0x17E0 JUMPI PUSH1 0x40 MLOAD PUSH32 0x8C379A000000000000000000000000000000000000000000000000000000000 DUP2 MSTORE PUSH1 0x4 ADD PUSH2 0x17D7 SWAP1 PUSH2 0x30A1 JUMP JUMPDEST PUSH1 0x40 MLOAD DUP1 SWAP2 SUB SWAP1 REVERT JUMPDEST PUSH1 0x0 PUSH1 0x1 DUP5 PUSH1 0x40 MLOAD PUSH2 0x17F2 SWAP2 SWAP1 PUSH2 0x243F JUMP JUMPDEST SWAP1 DUP2 MSTORE PUSH1 0x20 ADD PUSH1 0x40 MLOAD DUP1 SWAP2 SUB SWAP1 KECCAK256 PUSH1 0x0 DUP5 PUSH20 0xFFFFFFFFFFFFFFFFFFFFFFFFFFFFFFFFFFFFFFFF AND PUSH20 0xFFFFFFFFFFFFFFFFFFFFFFFFFFFFFFFFFFFFFFFF AND DUP2 MSTORE PUSH1 0x20 ADD SWAP1 DUP2 MSTORE PUSH1 0x20 ADD PUSH1 0x0 KECCAK256 PUSH1 0x0 ADD PUSH1 0x0 PUSH2 0x100 EXP DUP2 SLOAD DUP2 PUSH1 0xFF MUL NOT AND SWAP1 DUP4 ISZERO ISZERO MUL OR SWAP1 SSTORE POP DUP2 PUSH20 0xFFFFFFFFFFFFFFFFFFFFFFFFFFFFFFFFFFFFFFFF AND DUP4 PUSH1 0x40 MLOAD PUSH2 0x187C SWAP2 SWAP1 PUSH2 0x243F JUMP JUMPDEST PUSH1 0x40 MLOAD DUP1 SWAP2 SUB SWAP1 KECCAK256 PUSH32 0xA4056635223780A71518E8C10B6FC0FD195775C8375C4841C124A959AE5C30AD PUSH1 0x40 MLOAD PUSH1 0x40 MLOAD DUP1 SWAP2 SUB SWAP1 LOG3 DUP2 PUSH20 0xFFFFFFFFFFFFFFFFFFFFFFFFFFFFFFFFFFFFFFFF AND DUP4 PUSH1 0x40 MLOAD PUSH2 0x18D5 SWAP2 SWAP1 PUSH2 0x243F JUMP JUMPDEST PUSH1 0x40 MLOAD DUP1 SWAP2 SUB SWAP1 KECCAK256 PUSH32 0x72C9A8E381EAA01836F5DBBF633268CFCF158E238635AD80BA54B27DEB413ADE TIMESTAMP PUSH1 0x1 PUSH1 0x40 MLOAD PUSH2 0x190F SWAP3 SWAP2 SWAP1 PUSH2 0x310D JUMP JUMPDEST PUSH1 0x40 MLOAD DUP1 SWAP2 SUB SWAP1 LOG3 POP POP POP JUMP JUMPDEST PUSH1 0x60 DUP1 PUSH1 0x0 DUP1 PUSH1 0x0 PUSH1 0x60 PUSH1 0x0 DUP8 PUSH1 0x40 MLOAD PUSH2 0x1936 SWAP2 SWAP1 PUSH2 0x243F JUMP JUMPDEST SWAP1 DUP2 MSTORE PUSH1 0x20 ADD PUSH1 0x40 MLOAD DUP1 SWAP2 SUB SWAP1 KECCAK256 PUSH1 0x6 ADD PUSH1 0x0 SWAP1 SLOAD SWAP1 PUSH2 0x100 EXP SWAP1 DIV PUSH1 0xFF AND PUSH2 0x1994 JUMPI PUSH1 0x40 MLOAD PUSH32 0x8C379A000000000000000000000000000000000000000000000000000000000 DUP2 MSTORE PUSH1 0x4 ADD PUSH2 0x198B SWAP1 PUSH2 0x2929 JUMP JUMPDEST PUSH1 0x40 MLOAD DUP1 SWAP2 SUB SWAP1 REVERT JUMPDEST PUSH1 0x0 DUP1 DUP9 PUSH1 0x40 MLOAD PUSH2 0x19A5 SWAP2 SWAP1 PUSH2 0x243F JUMP JUMPDEST SWAP1 DUP2 MSTORE PUSH1 0x20 ADD PUSH1 0x40 MLOAD DUP1 SWAP2 SUB SWAP1 KECCAK256 PUSH1 0x40 MLOAD DUP1 PUSH1 0xE0 ADD PUSH1 0x40 MSTORE SWAP1 DUP2 PUSH1 0x0 DUP3 ADD DUP1 SLOAD PUSH2 0x19CE SWAP1 PUSH2 0x23D2 JUMP JUMPDEST DUP1 PUSH1 0x1F ADD PUSH1 0x20 DUP1 SWAP2 DIV MUL PUSH1 0x20 ADD PUSH1 0x40 MLOAD SWAP1 DUP2 ADD PUSH1 0x40 MSTORE DUP1 SWAP3 SWAP2 SWAP1 DUP2 DUP2 MSTORE PUSH1 0x20 ADD DUP3 DUP1 SLOAD PUSH2 0x19FA SWAP1 PUSH2 0x23D2 JUMP JUMPDEST DUP1 ISZERO PUSH2 0x1A47 JUMPI DUP1 PUSH1 0x1F LT PUSH2 0x1A1C JUMPI PUSH2 0x100 DUP1 DUP4 SLOAD DIV MUL DUP4 MSTORE SWAP2 PUSH1 0x20 ADD SWAP2 PUSH2 0x1A47 JUMP JUMPDEST DUP3 ADD SWAP2 SWAP1 PUSH1 0x0 MSTORE PUSH1 0x20 PUSH1 0x0 KECCAK256 SWAP1 JUMPDEST DUP2 SLOAD DUP2 MSTORE SWAP1 PUSH1 0x1 ADD SWAP1 PUSH1 0x20 ADD DUP1 DUP4 GT PUSH2 0x1A2A JUMPI DUP3 SWAP1 SUB PUSH1 0x1F AND DUP3 ADD SWAP2 JUMPDEST POP POP POP POP POP DUP2 MSTORE PUSH1 0x20 ADD PUSH1 0x1 DUP3 ADD DUP1 SLOAD PUSH2 0x1A60 SWAP1 PUSH2 0x23D2 JUMP JUMPDEST DUP1 PUSH1 0x1F ADD PUSH1 0x20 DUP1 SWAP2 DIV MUL PUSH1 0x20 ADD PUSH1 0x40 MLOAD SWAP1 DUP2 ADD PUSH1 0x40 MSTORE DUP1 SWAP3 SWAP2 SWAP1 DUP2 DUP2 MSTORE PUSH1 0x20 ADD DUP3 DUP1 SLOAD PUSH2 0x1A8C SWAP1 PUSH2 0x23D2 JUMP JUMPDEST DUP1 ISZERO PUSH2 0x1AD9 JUMPI DUP1 PUSH1 0x1F LT PUSH2 0x1AAE JUMPI PUSH2 0x100 DUP1 DUP4 SLOAD DIV MUL DUP4 MSTORE SWAP2 PUSH1 0x20 ADD SWAP2 PUSH2 0x1AD9 JUMP JUMPDEST DUP3 ADD SWAP2 SWAP1 PUSH1 0x0 MSTORE PUSH1 0x20 PUSH1 0x0 KECCAK256 SWAP1 JUMPDEST DUP2 SLOAD DUP2 MSTORE SWAP1 PUSH1 0x1 ADD SWAP1 PUSH1 0x20 ADD DUP1 DUP4 GT PUSH2 0x1ABC JUMPI DUP3 SWAP1 SUB PUSH1 0x1F AND DUP3 ADD SWAP2 JUMPDEST POP POP POP POP POP DUP2 MSTORE PUSH1 0x20 ADD PUSH1 0x2 DUP3 ADD PUSH1 0x0 SWAP1 SLOAD SWAP1 PUSH2 0x100 EXP SWAP1 DIV PUSH20 0xFFFFFFFFFFFFFFFFFFFFFFFFFFFFFFFFFFFFFFFF AND PUSH20 0xFFFFFFFFFFFFFFFFFFFFFFFFFFFFFFFFFFFFFFFF AND PUSH20 0xFFFFFFFFFFFFFFFFFFFFFFFFFFFFFFFFFFFFFFFF AND DUP2 MSTORE PUSH1 0x20 ADD PUSH1 0x3 DUP3 ADD SLOAD DUP2 MSTORE PUSH1 0x20 ADD PUSH1 0x4 DUP3 ADD PUSH1 0x0 SWAP1 SLOAD SWAP1 PUSH2 0x100 EXP SWAP1 DIV PUSH1 0xFF AND PUSH1 0xFF AND PUSH1 0xFF AND DUP2 MSTORE PUSH1 0x20 ADD PUSH1 0x5 DUP3 ADD DUP1 SLOAD PUSH2 0x1B6F SWAP1 PUSH2 0x23D2 JUMP JUMPDEST DUP1 PUSH1 0x1F ADD PUSH1 0x20 DUP1 SWAP2 DIV MUL PUSH1 0x20 ADD PUSH1 0x40 MLOAD SWAP1 DUP2 ADD PUSH1 0x40 MSTORE DUP1 SWAP3 SWAP2 SWAP1 DUP2 DUP2 MSTORE PUSH1 0x20 ADD DUP3 DUP1 SLOAD PUSH2 0x1B9B SWAP1 PUSH2 0x23D2 JUMP JUMPDEST DUP1 ISZERO PUSH2 0x1BE8 JUMPI DUP1 PUSH1 0x1F LT PUSH2 0x1BBD JUMPI PUSH2 0x100 DUP1 DUP4 SLOAD DIV MUL DUP4 MSTORE SWAP2 PUSH1 0x20 ADD SWAP2 PUSH2 0x1BE8 JUMP JUMPDEST DUP3 ADD SWAP2 SWAP1 PUSH1 0x0 MSTORE PUSH1 0x20 PUSH1 0x0 KECCAK256 SWAP1 JUMPDEST DUP2 SLOAD DUP2 MSTORE SWAP1 PUSH1 0x1 ADD SWAP1 PUSH1 0x20 ADD DUP1 DUP4 GT PUSH2 0x1BCB JUMPI DUP3 SWAP1 SUB PUSH1 0x1F AND DUP3 ADD SWAP2 JUMPDEST POP POP POP POP POP DUP2 MSTORE PUSH1 0x20 ADD PUSH1 0x6 DUP3 ADD PUSH1 0x0 SWAP1 SLOAD SWAP1 PUSH2 0x100 EXP SWAP1 DIV PUSH1 0xFF AND ISZERO ISZERO ISZERO ISZERO DUP2 MSTORE POP POP SWAP1 POP DUP1 PUSH1 0x0 ADD MLOAD DUP2 PUSH1 0x20 ADD MLOAD DUP3 PUSH1 0x40 ADD MLOAD DUP4 PUSH1 0x60 ADD MLOAD DUP5 PUSH1 0x80 ADD MLOAD DUP6 PUSH1 0xA0 ADD MLOAD SWAP7 POP SWAP7 POP SWAP7 POP SWAP7 POP SWAP7 POP SWAP7 POP POP SWAP2 SWAP4 SWAP6 POP SWAP2 SWAP4 SWAP6 JUMP JUMPDEST PUSH1 0x0 DUP2 ISZERO ISZERO SWAP1 POP SWAP2 SWAP1 POP JUMP JUMPDEST PUSH2 0x1C57 DUP2 PUSH2 0x1C42 JUMP JUMPDEST DUP3 MSTORE POP POP JUMP JUMPDEST PUSH1 0x0 PUSH1 0x20 DUP3 ADD SWAP1 POP PUSH2 0x1C72 PUSH1 0x0 DUP4 ADD DUP5 PUSH2 0x1C4E JUMP JUMPDEST SWAP3 SWAP2 POP POP JUMP JUMPDEST PUSH1 0x0 PUSH1 0x40 MLOAD SWAP1 POP SWAP1 JUMP JUMPDEST PUSH1 0x0 DUP1 REVERT JUMPDEST PUSH1 0x0 DUP1 REVERT JUMPDEST PUSH1 0x0 PUSH20 0xFFFFFFFFFFFFFFFFFFFFFFFFFFFFFFFFFFFFFFFF DUP3 AND SWAP1 POP SWAP2 SWAP1 POP JUMP JUMPDEST PUSH1 0x0 PUSH2 0x1CB7 DUP3 PUSH2 0x1C8C JUMP JUMPDEST SWAP1 POP SWAP2 SWAP1 POP JUMP JUMPDEST PUSH2 0x1CC7 DUP2 PUSH2 0x1CAC JUMP JUMPDEST DUP2 EQ PUSH2 0x1CD2 JUMPI PUSH1 0x0 DUP1 REVERT JUMPDEST POP JUMP JUMPDEST PUSH1 0x0 DUP2 CALLDATALOAD SWAP1 POP PUSH2 0x1CE4 DUP2 PUSH2 0x1CBE JUMP JUMPDEST SWAP3 SWAP2 POP POP JUMP JUMPDEST PUSH1 0x0 PUSH1 0x20 DUP3 DUP5 SUB SLT ISZERO PUSH2 0x1D00 JUMPI PUSH2 0x1CFF PUSH2 0x1C82 JUMP JUMPDEST JUMPDEST PUSH1 0x0 PUSH2 0x1D0E DUP5 DUP3 DUP6 ADD PUSH2 0x1CD5 JUMP JUMPDEST SWAP2 POP POP SWAP3 SWAP2 POP POP JUMP JUMPDEST PUSH1 0x0 DUP2 MLOAD SWAP1 POP SWAP2 SWAP1 POP JUMP JUMPDEST PUSH1 0x0 DUP3 DUP3 MSTORE PUSH1 0x20 DUP3 ADD SWAP1 POP SWAP3 SWAP2 POP POP JUMP JUMPDEST PUSH1 0x0 DUP2 SWAP1 POP PUSH1 0x20 DUP3 ADD SWAP1 POP SWAP2 SWAP1 POP JUMP JUMPDEST PUSH1 0x0 DUP2 MLOAD SWAP1 POP SWAP2 SWAP1 POP JUMP JUMPDEST PUSH1 0x0 DUP3 DUP3 MSTORE PUSH1 0x20 DUP3 ADD SWAP1 POP SWAP3 SWAP2 POP POP JUMP JUMPDEST PUSH1 0x0 JUMPDEST DUP4 DUP2 LT ISZERO PUSH2 0x1D7D JUMPI DUP1 DUP3 ADD MLOAD DUP2 DUP5 ADD MSTORE PUSH1 0x20 DUP2 ADD SWAP1 POP PUSH2 0x1D62 JUMP JUMPDEST PUSH1 0x0 DUP5 DUP5 ADD MSTORE POP POP POP POP JUMP JUMPDEST PUSH1 0x0 PUSH1 0x1F NOT PUSH1 0x1F DUP4 ADD AND SWAP1 POP SWAP2 SWAP1 POP JUMP JUMPDEST PUSH1 0x0 PUSH2 0x1DA5 DUP3 PUSH2 0x1D43 JUMP JUMPDEST PUSH2 0x1DAF DUP2 DUP6 PUSH2 0x1D4E JUMP JUMPDEST SWAP4 POP PUSH2 0x1DBF DUP2 DUP6 PUSH1 0x20 DUP7 ADD PUSH2 0x1D5F JUMP JUMPDEST PUSH2 0x1DC8 DUP2 PUSH2 0x1D89 JUMP JUMPDEST DUP5 ADD SWAP2 POP POP SWAP3 SWAP2 POP POP JUMP JUMPDEST PUSH1 0x0 PUSH2 0x1DDF DUP4 DUP4 PUSH2 0x1D9A JUMP JUMPDEST SWAP1 POP SWAP3 SWAP2 POP POP JUMP JUMPDEST PUSH1 0x0 PUSH1 0x20 DUP3 ADD SWAP1 POP SWAP2 SWAP1 POP JUMP JUMPDEST PUSH1 0x0 PUSH2 0x1DFF DUP3 PUSH2 0x1D17 JUMP JUMPDEST PUSH2 0x1E09 DUP2 DUP6 PUSH2 0x1D22 JUMP JUMPDEST SWAP4 POP DUP4 PUSH1 0x20 DUP3 MUL DUP6 ADD PUSH2 0x1E1B DUP6 PUSH2 0x1D33 JUMP JUMPDEST DUP1 PUSH1 0x0 JUMPDEST DUP6 DUP2 LT ISZERO PUSH2 0x1E57 JUMPI DUP5 DUP5 SUB DUP10 MSTORE DUP2 MLOAD PUSH2 0x1E38 DUP6 DUP3 PUSH2 0x1DD3 JUMP JUMPDEST SWAP5 POP PUSH2 0x1E43 DUP4 PUSH2 0x1DE7 JUMP JUMPDEST SWAP3 POP PUSH1 0x20 DUP11 ADD SWAP10 POP POP PUSH1 0x1 DUP2 ADD SWAP1 POP PUSH2 0x1E1F JUMP JUMPDEST POP DUP3 SWAP8 POP DUP8 SWAP6 POP POP POP POP POP POP SWAP3 SWAP2 POP POP JUMP JUMPDEST PUSH1 0x0 PUSH1 0x20 DUP3 ADD SWAP1 POP DUP2 DUP2 SUB PUSH1 0x0 DUP4 ADD MSTORE PUSH2 0x1E83 DUP2 DUP5 PUSH2 0x1DF4 JUMP JUMPDEST SWAP1 POP SWAP3 SWAP2 POP POP JUMP JUMPDEST PUSH1 0x0 DUP1 REVERT JUMPDEST PUSH1 0x0 DUP1 REVERT JUMPDEST PUSH32 0x4E487B7100000000000000000000000000000000000000000000000000000000 PUSH1 0x0 MSTORE PUSH1 0x41 PUSH1 0x4 MSTORE PUSH1 0x24 PUSH1 0x0 REVERT JUMPDEST PUSH2 0x1ECD DUP3 PUSH2 0x1D89 JUMP JUMPDEST DUP2 ADD DUP2 DUP2 LT PUSH8 0xFFFFFFFFFFFFFFFF DUP3 GT OR ISZERO PUSH2 0x1EEC JUMPI PUSH2 0x1EEB PUSH2 0x1E95 JUMP JUMPDEST JUMPDEST DUP1 PUSH1 0x40 MSTORE POP POP POP JUMP JUMPDEST PUSH1 0x0 PUSH2 0x1EFF PUSH2 0x1C78 JUMP JUMPDEST SWAP1 POP PUSH2 0x1F0B DUP3 DUP3 PUSH2 0x1EC4 JUMP JUMPDEST SWAP2 SWAP1 POP JUMP JUMPDEST PUSH1 0x0 PUSH8 0xFFFFFFFFFFFFFFFF DUP3 GT ISZERO PUSH2 0x1F2B JUMPI PUSH2 0x1F2A PUSH2 0x1E95 JUMP JUMPDEST JUMPDEST PUSH2 0x1F34 DUP3 PUSH2 0x1D89 JUMP JUMPDEST SWAP1 POP PUSH1 0x20 DUP2 ADD SWAP1 POP SWAP2 SWAP1 POP JUMP JUMPDEST DUP3 DUP2 DUP4 CALLDATACOPY PUSH1 0x0 DUP4 DUP4 ADD MSTORE POP POP POP JUMP JUMPDEST PUSH1 0x0 PUSH2 0x1F63 PUSH2 0x1F5E DUP5 PUSH2 0x1F10 JUMP JUMPDEST PUSH2 0x1EF5 JUMP JUMPDEST SWAP1 POP DUP3 DUP2 MSTORE PUSH1 0x20 DUP2 ADD DUP5 DUP5 DUP5 ADD GT ISZERO PUSH2 0x1F7F JUMPI PUSH2 0x1F7E PUSH2 0x1E90 JUMP JUMPDEST JUMPDEST PUSH2 0x1F8A DUP5 DUP3 DUP6 PUSH2 0x1F41 JUMP JUMPDEST POP SWAP4 SWAP3 POP POP POP JUMP JUMPDEST PUSH1 0x0 DUP3 PUSH1 0x1F DUP4 ADD SLT PUSH2 0x1FA7 JUMPI PUSH2 0x1FA6 PUSH2 0x1E8B JUMP JUMPDEST JUMPDEST DUP2 CALLDATALOAD PUSH2 0x1FB7 DUP5 DUP3 PUSH1 0x20 DUP7 ADD PUSH2 0x1F50 JUMP JUMPDEST SWAP2 POP POP SWAP3 SWAP2 POP POP JUMP JUMPDEST PUSH1 0x0 DUP1 PUSH1 0x40 DUP4 DUP6 SUB SLT ISZERO PUSH2 0x1FD7 JUMPI PUSH2 0x1FD6 PUSH2 0x1C82 JUMP JUMPDEST JUMPDEST PUSH1 0x0 DUP4 ADD CALLDATALOAD PUSH8 0xFFFFFFFFFFFFFFFF DUP2 GT ISZERO PUSH2 0x1FF5 JUMPI PUSH2 0x1FF4 PUSH2 0x1C87 JUMP JUMPDEST JUMPDEST PUSH2 0x2001 DUP6 DUP3 DUP7 ADD PUSH2 0x1F92 JUMP JUMPDEST SWAP3 POP POP PUSH1 0x20 PUSH2 0x2012 DUP6 DUP3 DUP7 ADD PUSH2 0x1CD5 JUMP JUMPDEST SWAP2 POP POP SWAP3 POP SWAP3 SWAP1 POP JUMP JUMPDEST PUSH2 0x2025 DUP2 PUSH2 0x1C42 JUMP JUMPDEST DUP2 EQ PUSH2 0x2030 JUMPI PUSH1 0x0 DUP1 REVERT JUMPDEST POP JUMP JUMPDEST PUSH1 0x0 DUP2 CALLDATALOAD SWAP1 POP PUSH2 0x2042 DUP2 PUSH2 0x201C JUMP JUMPDEST SWAP3 SWAP2 POP POP JUMP JUMPDEST PUSH1 0x0 PUSH1 0x20 DUP3 DUP5 SUB SLT ISZERO PUSH2 0x205E JUMPI PUSH2 0x205D PUSH2 0x1C82 JUMP JUMPDEST JUMPDEST PUSH1 0x0 PUSH2 0x206C DUP5 DUP3 DUP6 ADD PUSH2 0x2033 JUMP JUMPDEST SWAP2 POP POP SWAP3 SWAP2 POP POP JUMP JUMPDEST PUSH2 0x207E DUP2 PUSH2 0x1CAC JUMP JUMPDEST DUP3 MSTORE POP POP JUMP JUMPDEST PUSH1 0x0 PUSH1 0x20 DUP3 ADD SWAP1 POP PUSH2 0x2099 PUSH1 0x0 DUP4 ADD DUP5 PUSH2 0x2075 JUMP JUMPDEST SWAP3 SWAP2 POP POP JUMP JUMPDEST PUSH1 0x0 PUSH1 0xFF DUP3 AND SWAP1 POP SWAP2 SWAP1 POP JUMP JUMPDEST PUSH2 0x20B5 DUP2 PUSH2 0x209F JUMP JUMPDEST DUP2 EQ PUSH2 0x20C0 JUMPI PUSH1 0x0 DUP1 REVERT JUMPDEST POP JUMP JUMPDEST PUSH1 0x0 DUP2 CALLDATALOAD SWAP1 POP PUSH2 0x20D2 DUP2 PUSH2 0x20AC JUMP JUMPDEST SWAP3 SWAP2 POP POP JUMP JUMPDEST PUSH1 0x0 DUP1 PUSH1 0x0 DUP1 PUSH1 0x0 PUSH1 0xA0 DUP7 DUP9 SUB SLT ISZERO PUSH2 0x20F4 JUMPI PUSH2 0x20F3 PUSH2 0x1C82 JUMP JUMPDEST JUMPDEST PUSH1 0x0 DUP7 ADD CALLDATALOAD PUSH8 0xFFFFFFFFFFFFFFFF DUP2 GT ISZERO PUSH2 0x2112 JUMPI PUSH2 0x2111 PUSH2 0x1C87 JUMP JUMPDEST JUMPDEST PUSH2 0x211E DUP9 DUP3 DUP10 ADD PUSH2 0x1F92 JUMP JUMPDEST SWAP6 POP POP PUSH1 0x20 DUP7 ADD CALLDATALOAD PUSH8 0xFFFFFFFFFFFFFFFF DUP2 GT ISZERO PUSH2 0x213F JUMPI PUSH2 0x213E PUSH2 0x1C87 JUMP JUMPDEST JUMPDEST PUSH2 0x214B DUP9 DUP3 DUP10 ADD PUSH2 0x1F92 JUMP JUMPDEST SWAP5 POP POP PUSH1 0x40 DUP7 ADD CALLDATALOAD PUSH8 0xFFFFFFFFFFFFFFFF DUP2 GT ISZERO PUSH2 0x216C JUMPI PUSH2 0x216B PUSH2 0x1C87 JUMP JUMPDEST JUMPDEST PUSH2 0x2178 DUP9 DUP3 DUP10 ADD PUSH2 0x1F92 JUMP JUMPDEST SWAP4 POP POP PUSH1 0x60 PUSH2 0x2189 DUP9 DUP3 DUP10 ADD PUSH2 0x20C3 JUMP JUMPDEST SWAP3 POP POP PUSH1 0x80 DUP7 ADD CALLDATALOAD PUSH8 0xFFFFFFFFFFFFFFFF DUP2 GT ISZERO PUSH2 0x21AA JUMPI PUSH2 0x21A9 PUSH2 0x1C87 JUMP JUMPDEST JUMPDEST PUSH2 0x21B6 DUP9 DUP3 DUP10 ADD PUSH2 0x1F92 JUMP JUMPDEST SWAP2 POP POP SWAP3 SWAP6 POP SWAP3 SWAP6 SWAP1 SWAP4 POP JUMP JUMPDEST PUSH1 0x0 DUP2 SWAP1 POP SWAP2 SWAP1 POP JUMP JUMPDEST PUSH2 0x21D6 DUP2 PUSH2 0x21C3 JUMP JUMPDEST DUP2 EQ PUSH2 0x21E1 JUMPI PUSH1 0x0 DUP1 REVERT JUMPDEST POP JUMP JUMPDEST PUSH1 0x0 DUP2 CALLDATALOAD SWAP1 POP PUSH2 0x21F3 DUP2 PUSH2 0x21CD JUMP JUMPDEST SWAP3 SWAP2 POP POP JUMP JUMPDEST PUSH1 0x0 DUP1 PUSH1 0x0 DUP1 PUSH1 0x80 DUP6 DUP8 SUB SLT ISZERO PUSH2 0x2213 JUMPI PUSH2 0x2212 PUSH2 0x1C82 JUMP JUMPDEST JUMPDEST PUSH1 0x0 DUP6 ADD CALLDATALOAD PUSH8 0xFFFFFFFFFFFFFFFF DUP2 GT ISZERO PUSH2 0x2231 JUMPI PUSH2 0x2230 PUSH2 0x1C87 JUMP JUMPDEST JUMPDEST PUSH2 0x223D DUP8 DUP3 DUP9 ADD PUSH2 0x1F92 JUMP JUMPDEST SWAP5 POP POP PUSH1 0x20 PUSH2 0x224E DUP8 DUP3 DUP9 ADD PUSH2 0x1CD5 JUMP JUMPDEST SWAP4 POP POP PUSH1 0x40 PUSH2 0x225F DUP8 DUP3 DUP9 ADD PUSH2 0x21E4 JUMP JUMPDEST SWAP3 POP POP PUSH1 0x60 PUSH2 0x2270 DUP8 DUP3 DUP9 ADD PUSH2 0x21E4 JUMP JUMPDEST SWAP2 POP POP SWAP3 SWAP6 SWAP2 SWAP5 POP SWAP3 POP JUMP JUMPDEST PUSH1 0x0 PUSH1 0x20 DUP3 DUP5 SUB SLT ISZERO PUSH2 0x2292 JUMPI PUSH2 0x2291 PUSH2 0x1C82 JUMP JUMPDEST JUMPDEST PUSH1 0x0 DUP3 ADD CALLDATALOAD PUSH8 0xFFFFFFFFFFFFFFFF DUP2 GT ISZERO PUSH2 0x22B0 JUMPI PUSH2 0x22AF PUSH2 0x1C87 JUMP JUMPDEST JUMPDEST PUSH2 0x22BC DUP5 DUP3 DUP6 ADD PUSH2 0x1F92 JUMP JUMPDEST SWAP2 POP POP SWAP3 SWAP2 POP POP JUMP JUMPDEST PUSH1 0x0 DUP3 DUP3 MSTORE PUSH1 0x20 DUP3 ADD SWAP1 POP SWAP3 SWAP2 POP POP JUMP JUMPDEST PUSH1 0x0 PUSH2 0x22E1 DUP3 PUSH2 0x1D43 JUMP JUMPDEST PUSH2 0x22EB DUP2 DUP6 PUSH2 0x22C5 JUMP JUMPDEST SWAP4 POP PUSH2 0x22FB DUP2 DUP6 PUSH1 0x20 DUP7 ADD PUSH2 0x1D5F JUMP JUMPDEST PUSH2 0x2304 DUP2 PUSH2 0x1D89 JUMP JUMPDEST DUP5 ADD SWAP2 POP POP SWAP3 SWAP2 POP POP JUMP JUMPDEST PUSH2 0x2318 DUP2 PUSH2 0x21C3 JUMP JUMPDEST DUP3 MSTORE POP POP JUMP JUMPDEST PUSH2 0x2327 DUP2 PUSH2 0x209F JUMP JUMPDEST DUP3 MSTORE POP POP JUMP JUMPDEST PUSH1 0x0 PUSH1 0xC0 DUP3 ADD SWAP1 POP DUP2 DUP2 SUB PUSH1 0x0 DUP4 ADD MSTORE PUSH2 0x2347 DUP2 DUP10 PUSH2 0x22D6 JUMP JUMPDEST SWAP1 POP DUP2 DUP2 SUB PUSH1 0x20 DUP4 ADD MSTORE PUSH2 0x235B DUP2 DUP9 PUSH2 0x22D6 JUMP JUMPDEST SWAP1 POP PUSH2 0x236A PUSH1 0x40 DUP4 ADD DUP8 PUSH2 0x2075 JUMP JUMPDEST PUSH2 0x2377 PUSH1 0x60 DUP4 ADD DUP7 PUSH2 0x230F JUMP JUMPDEST PUSH2 0x2384 PUSH1 0x80 DUP4 ADD DUP6 PUSH2 0x231E JUMP JUMPDEST DUP2 DUP2 SUB PUSH1 0xA0 DUP4 ADD MSTORE PUSH2 0x2396 DUP2 DUP5 PUSH2 0x22D6 JUMP JUMPDEST SWAP1 POP SWAP8 SWAP7 POP POP POP POP POP POP POP JUMP JUMPDEST PUSH32 0x4E487B7100000000000000000000000000000000000000000000000000000000 PUSH1 0x0 MSTORE PUSH1 0x22 PUSH1 0x4 MSTORE PUSH1 0x24 PUSH1 0x0 REVERT JUMPDEST PUSH1 0x0 PUSH1 0x2 DUP3 DIV SWAP1 POP PUSH1 0x1 DUP3 AND DUP1 PUSH2 0x23EA JUMPI PUSH1 0x7F DUP3 AND SWAP2 POP JUMPDEST PUSH1 0x20 DUP3 LT DUP2 SUB PUSH2 0x23FD JUMPI PUSH2 0x23FC PUSH2 0x23A3 JUMP JUMPDEST JUMPDEST POP SWAP2 SWAP1 POP JUMP JUMPDEST PUSH1 0x0 DUP2 SWAP1 POP SWAP3 SWAP2 POP POP JUMP JUMPDEST PUSH1 0x0 PUSH2 0x2419 DUP3 PUSH2 0x1D43 JUMP JUMPDEST PUSH2 0x2423 DUP2 DUP6 PUSH2 0x2403 JUMP JUMPDEST SWAP4 POP PUSH2 0x2433 DUP2 DUP6 PUSH1 0x20 DUP7 ADD PUSH2 0x1D5F JUMP JUMPDEST DUP1 DUP5 ADD SWAP2 POP POP SWAP3 SWAP2 POP POP JUMP JUMPDEST PUSH1 0x0 PUSH2 0x244B DUP3 DUP5 PUSH2 0x240E JUMP JUMPDEST SWAP2 POP DUP2 SWAP1 POP SWAP3 SWAP2 POP POP JUMP JUMPDEST PUSH32 0x5645524946595F4641494C45445F4C4F434B0000000000000000000000000000 PUSH1 0x0 DUP3 ADD MSTORE POP JUMP JUMPDEST PUSH1 0x0 PUSH2 0x248C PUSH1 0x12 DUP4 PUSH2 0x22C5 JUMP JUMPDEST SWAP2 POP PUSH2 0x2497 DUP3 PUSH2 0x2456 JUMP JUMPDEST PUSH1 0x20 DUP3 ADD SWAP1 POP SWAP2 SWAP1 POP JUMP JUMPDEST PUSH1 0x0 PUSH1 0x60 DUP3 ADD SWAP1 POP DUP2 DUP2 SUB PUSH1 0x0 DUP4 ADD MSTORE PUSH2 0x24BB DUP2 PUSH2 0x247F JUMP JUMPDEST SWAP1 POP PUSH2 0x24CA PUSH1 0x20 DUP4 ADD DUP6 PUSH2 0x230F JUMP JUMPDEST PUSH2 0x24D7 PUSH1 0x40 DUP4 ADD DUP5 PUSH2 0x1C4E JUMP JUMPDEST SWAP4 SWAP3 POP POP POP JUMP JUMPDEST PUSH32 0x5645524946595F4641494C45445F455849535453000000000000000000000000 PUSH1 0x0 DUP3 ADD MSTORE POP JUMP JUMPDEST PUSH1 0x0 PUSH2 0x2514 PUSH1 0x14 DUP4 PUSH2 0x22C5 JUMP JUMPDEST SWAP2 POP PUSH2 0x251F DUP3 PUSH2 0x24DE JUMP JUMPDEST PUSH1 0x20 DUP3 ADD SWAP1 POP SWAP2 SWAP1 POP JUMP JUMPDEST PUSH1 0x0 PUSH1 0x60 DUP3 ADD SWAP1 POP DUP2 DUP2 SUB PUSH1 0x0 DUP4 ADD MSTORE PUSH2 0x2543 DUP2 PUSH2 0x2507 JUMP JUMPDEST SWAP1 POP PUSH2 0x2552 PUSH1 0x20 DUP4 ADD DUP6 PUSH2 0x230F JUMP JUMPDEST PUSH2 0x255F PUSH1 0x40 DUP4 ADD DUP5 PUSH2 0x1C4E JUMP JUMPDEST SWAP4 SWAP3 POP POP POP JUMP JUMPDEST PUSH32 0x5645524946595F535543434553535F4F574E4552000000000000000000000000 PUSH1 0x0 DUP3 ADD MSTORE POP JUMP JUMPDEST PUSH1 0x0 PUSH2 0x259C PUSH1 0x14 DUP4 PUSH2 0x22C5 JUMP JUMPDEST SWAP2 POP PUSH2 0x25A7 DUP3 PUSH2 0x2566 JUMP JUMPDEST PUSH1 0x20 DUP3 ADD SWAP1 POP SWAP2 SWAP1 POP JUMP JUMPDEST PUSH1 0x0 PUSH1 0x60 DUP3 ADD SWAP1 POP DUP2 DUP2 SUB PUSH1 0x0 DUP4 ADD MSTORE PUSH2 0x25CB DUP2 PUSH2 0x258F JUMP JUMPDEST SWAP1 POP PUSH2 0x25DA PUSH1 0x20 DUP4 ADD DUP6 PUSH2 0x230F JUMP JUMPDEST PUSH2 0x25E7 PUSH1 0x40 DUP4 ADD DUP5 PUSH2 0x1C4E JUMP JUMPDEST SWAP4 SWAP3 POP POP POP JUMP JUMPDEST PUSH32 0x5645524946595F4641494C45445F4E4F545F4752414E54454400000000000000 PUSH1 0x0 DUP3 ADD MSTORE POP JUMP JUMPDEST PUSH1 0x0 PUSH2 0x2624 PUSH1 0x19 DUP4 PUSH2 0x22C5 JUMP JUMPDEST SWAP2 POP PUSH2 0x262F DUP3 PUSH2 0x25EE JUMP JUMPDEST PUSH1 0x20 DUP3 ADD SWAP1 POP SWAP2 SWAP1 POP JUMP JUMPDEST PUSH1 0x0 PUSH1 0x60 DUP3 ADD SWAP1 POP DUP2 DUP2 SUB PUSH1 0x0 DUP4 ADD MSTORE PUSH2 0x2653 DUP2 PUSH2 0x2617 JUMP JUMPDEST SWAP1 POP PUSH2 0x2662 PUSH1 0x20 DUP4 ADD DUP6 PUSH2 0x230F JUMP JUMPDEST PUSH2 0x266F PUSH1 0x40 DUP4 ADD DUP5 PUSH2 0x1C4E JUMP JUMPDEST SWAP4 SWAP3 POP POP POP JUMP JUMPDEST PUSH32 0x5645524946595F4641494C45445F455850495245440000000000000000000000 PUSH1 0x0 DUP3 ADD MSTORE POP JUMP JUMPDEST PUSH1 0x0 PUSH2 0x26AC PUSH1 0x15 DUP4 PUSH2 0x22C5 JUMP JUMPDEST SWAP2 POP PUSH2 0x26B7 DUP3 PUSH2 0x2676 JUMP JUMPDEST PUSH1 0x20 DUP3 ADD SWAP1 POP SWAP2 SWAP1 POP JUMP JUMPDEST PUSH1 0x0 PUSH1 0x60 DUP3 ADD SWAP1 POP DUP2 DUP2 SUB PUSH1 0x0 DUP4 ADD MSTORE PUSH2 0x26DB DUP2 PUSH2 0x269F JUMP JUMPDEST SWAP1 POP PUSH2 0x26EA PUSH1 0x20 DUP4 ADD DUP6 PUSH2 0x230F JUMP JUMPDEST PUSH2 0x26F7 PUSH1 0x40 DUP4 ADD DUP5 PUSH2 0x1C4E JUMP JUMPDEST SWAP4 SWAP3 POP POP POP JUMP JUMPDEST PUSH32 0x5645524946595F4641494C45445F444F574E4C4F41445F4C494D495400000000 PUSH1 0x0 DUP3 ADD MSTORE POP JUMP JUMPDEST PUSH1 0x0 PUSH2 0x2734 PUSH1 0x1C DUP4 PUSH2 0x22C5 JUMP JUMPDEST SWAP2 POP PUSH2 0x273F DUP3 PUSH2 0x26FE JUMP JUMPDEST PUSH1 0x20 DUP3 ADD SWAP1 POP SWAP2 SWAP1 POP JUMP JUMPDEST PUSH1 0x0 PUSH1 0x60 DUP3 ADD SWAP1 POP DUP2 DUP2 SUB PUSH1 0x0 DUP4 ADD MSTORE PUSH2 0x2763 DUP2 PUSH2 0x2727 JUMP JUMPDEST SWAP1 POP PUSH2 0x2772 PUSH1 0x20 DUP4 ADD DUP6 PUSH2 0x230F JUMP JUMPDEST PUSH2 0x277F PUSH1 0x40 DUP4 ADD DUP5 PUSH2 0x1C4E JUMP JUMPDEST SWAP4 SWAP3 POP POP POP JUMP JUMPDEST PUSH32 0x4E487B7100000000000000000000000000000000000000000000000000000000 PUSH1 0x0 MSTORE PUSH1 0x11 PUSH1 0x4 MSTORE PUSH1 0x24 PUSH1 0x0 REVERT JUMPDEST PUSH1 0x0 PUSH2 0x27C0 DUP3 PUSH2 0x21C3 JUMP JUMPDEST SWAP2 POP PUSH2 0x27CB DUP4 PUSH2 0x21C3 JUMP JUMPDEST SWAP3 POP DUP3 DUP3 ADD SWAP1 POP DUP1 DUP3 GT ISZERO PUSH2 0x27E3 JUMPI PUSH2 0x27E2 PUSH2 0x2786 JUMP JUMPDEST JUMPDEST SWAP3 SWAP2 POP POP JUMP JUMPDEST PUSH32 0x5645524946595F535543434553535F5348415245440000000000000000000000 PUSH1 0x0 DUP3 ADD MSTORE POP JUMP JUMPDEST PUSH1 0x0 PUSH2 0x281F PUSH1 0x15 DUP4 PUSH2 0x22C5 JUMP JUMPDEST SWAP2 POP PUSH2 0x282A DUP3 PUSH2 0x27E9 JUMP JUMPDEST PUSH1 0x20 DUP3 ADD SWAP1 POP SWAP2 SWAP1 POP JUMP JUMPDEST PUSH1 0x0 PUSH1 0x60 DUP3 ADD SWAP1 POP DUP2 DUP2 SUB PUSH1 0x0 DUP4 ADD MSTORE PUSH2 0x284E DUP2 PUSH2 0x2812 JUMP JUMPDEST SWAP1 POP PUSH2 0x285D PUSH1 0x20 DUP4 ADD DUP6 PUSH2 0x230F JUMP JUMPDEST PUSH2 0x286A PUSH1 0x40 DUP4 ADD DUP5 PUSH2 0x1C4E JUMP JUMPDEST SWAP4 SWAP3 POP POP POP JUMP JUMPDEST PUSH32 0x4E6F7420636F6E7472616374206F776E65720000000000000000000000000000 PUSH1 0x0 DUP3 ADD MSTORE POP JUMP JUMPDEST PUSH1 0x0 PUSH2 0x28A7 PUSH1 0x12 DUP4 PUSH2 0x22C5 JUMP JUMPDEST SWAP2 POP PUSH2 0x28B2 DUP3 PUSH2 0x2871 JUMP JUMPDEST PUSH1 0x20 DUP3 ADD SWAP1 POP SWAP2 SWAP1 POP JUMP JUMPDEST PUSH1 0x0 PUSH1 0x20 DUP3 ADD SWAP1 POP DUP2 DUP2 SUB PUSH1 0x0 DUP4 ADD MSTORE PUSH2 0x28D6 DUP2 PUSH2 0x289A JUMP JUMPDEST SWAP1 POP SWAP2 SWAP1 POP JUMP JUMPDEST PUSH32 0x46696C6520646F6573206E6F7420657869737400000000000000000000000000 PUSH1 0x0 DUP3 ADD MSTORE POP JUMP JUMPDEST PUSH1 0x0 PUSH2 0x2913 PUSH1 0x13 DUP4 PUSH2 0x22C5 JUMP JUMPDEST SWAP2 POP PUSH2 0x291E DUP3 PUSH2 0x28DD JUMP JUMPDEST PUSH1 0x20 DUP3 ADD SWAP1 POP SWAP2 SWAP1 POP JUMP JUMPDEST PUSH1 0x0 PUSH1 0x20 DUP3 ADD SWAP1 POP DUP2 DUP2 SUB PUSH1 0x0 DUP4 ADD MSTORE PUSH2 0x2942 DUP2 PUSH2 0x2906 JUMP JUMPDEST SWAP1 POP SWAP2 SWAP1 POP JUMP JUMPDEST PUSH32 0x4E6F74207468652066696C65206F776E65720000000000000000000000000000 PUSH1 0x0 DUP3 ADD MSTORE POP JUMP JUMPDEST PUSH1 0x0 PUSH2 0x297F PUSH1 0x12 DUP4 PUSH2 0x22C5 JUMP JUMPDEST SWAP2 POP PUSH2 0x298A DUP3 PUSH2 0x2949 JUMP JUMPDEST PUSH1 0x20 DUP3 ADD SWAP1 POP SWAP2 SWAP1 POP JUMP JUMPDEST PUSH1 0x0 PUSH1 0x20 DUP3 ADD SWAP1 POP DUP2 DUP2 SUB PUSH1 0x0 DUP4 ADD MSTORE PUSH2 0x29AE DUP2 PUSH2 0x2972 JUMP JUMPDEST SWAP1 POP SWAP2 SWAP1 POP JUMP JUMPDEST PUSH32 0x53797374656D20697320756E64657220656D657267656E6379206C6F636B0000 PUSH1 0x0 DUP3 ADD MSTORE POP JUMP JUMPDEST PUSH1 0x0 PUSH2 0x29EB PUSH1 0x1E DUP4 PUSH2 0x22C5 JUMP JUMPDEST SWAP2 POP PUSH2 0x29F6 DUP3 PUSH2 0x29B5 JUMP JUMPDEST PUSH1 0x20 DUP3 ADD SWAP1 POP SWAP2 SWAP1 POP JUMP JUMPDEST PUSH1 0x0 PUSH1 0x20 DUP3 ADD SWAP1 POP DUP2 DUP2 SUB PUSH1 0x0 DUP4 ADD MSTORE PUSH2 0x2A1A DUP2 PUSH2 0x29DE JUMP JUMPDEST SWAP1 POP SWAP2 SWAP1 POP JUMP JUMPDEST PUSH32 0x496E76616C6964206E6577206F776E6572206164647265737300000000000000 PUSH1 0x0 DUP3 ADD MSTORE POP JUMP JUMPDEST PUSH1 0x0 PUSH2 0x2A57 PUSH1 0x19 DUP4 PUSH2 0x22C5 JUMP JUMPDEST SWAP2 POP PUSH2 0x2A62 DUP3 PUSH2 0x2A21 JUMP JUMPDEST PUSH1 0x20 DUP3 ADD SWAP1 POP SWAP2 SWAP1 POP JUMP JUMPDEST PUSH1 0x0 PUSH1 0x20 DUP3 ADD SWAP1 POP DUP2 DUP2 SUB PUSH1 0x0 DUP4 ADD MSTORE PUSH2 0x2A86 DUP2 PUSH2 0x2A4A JUMP JUMPDEST SWAP1 POP SWAP2 SWAP1 POP JUMP JUMPDEST PUSH1 0x0 DUP2 SWAP1 POP DUP2 PUSH1 0x0 MSTORE PUSH1 0x20 PUSH1 0x0 KECCAK256 SWAP1 POP SWAP2 SWAP1 POP JUMP JUMPDEST PUSH1 0x0 PUSH1 0x20 PUSH1 0x1F DUP4 ADD DIV SWAP1 POP SWAP2 SWAP1 POP JUMP JUMPDEST PUSH1 0x0 DUP3 DUP3 SHL SWAP1 POP SWAP3 SWAP2 POP POP JUMP JUMPDEST PUSH1 0x0 PUSH1 0x8 DUP4 MUL PUSH2 0x2AEF PUSH32 0xFFFFFFFFFFFFFFFFFFFFFFFFFFFFFFFFFFFFFFFFFFFFFFFFFFFFFFFFFFFFFFFF DUP3 PUSH2 0x2AB2 JUMP JUMPDEST PUSH2 0x2AF9 DUP7 DUP4 PUSH2 0x2AB2 JUMP JUMPDEST SWAP6 POP DUP1 NOT DUP5 AND SWAP4 POP DUP1 DUP7 AND DUP5 OR SWAP3 POP POP POP SWAP4 SWAP3 POP POP POP JUMP JUMPDEST PUSH1 0x0 DUP2 SWAP1 POP SWAP2 SWAP1 POP JUMP JUMPDEST PUSH1 0x0 PUSH2 0x2B36 PUSH2 0x2B31 PUSH2 0x2B2C DUP5 PUSH2 0x21C3 JUMP JUMPDEST PUSH2 0x2B11 JUMP JUMPDEST PUSH2 0x21C3 JUMP JUMPDEST SWAP1 POP SWAP2 SWAP1 POP JUMP JUMPDEST PUSH1 0x0 DUP2 SWAP1 POP SWAP2 SWAP1 POP JUMP JUMPDEST PUSH2 0x2B50 DUP4 PUSH2 0x2B1B JUMP JUMPDEST PUSH2 0x2B64 PUSH2 0x2B5C DUP3 PUSH2 0x2B3D JUMP JUMPDEST DUP5 DUP5 SLOAD PUSH2 0x2ABF JUMP JUMPDEST DUP3 SSTORE POP POP POP POP JUMP JUMPDEST PUSH1 0x0 SWAP1 JUMP JUMPDEST PUSH2 0x2B79 PUSH2 0x2B6C JUMP JUMPDEST PUSH2 0x2B84 DUP2 DUP5 DUP5 PUSH2 0x2B47 JUMP JUMPDEST POP POP POP JUMP JUMPDEST JUMPDEST DUP2 DUP2 LT ISZERO PUSH2 0x2BA8 JUMPI PUSH2 0x2B9D PUSH1 0x0 DUP3 PUSH2 0x2B71 JUMP JUMPDEST PUSH1 0x1 DUP2 ADD SWAP1 POP PUSH2 0x2B8A JUMP JUMPDEST POP POP JUMP JUMPDEST PUSH1 0x1F DUP3 GT ISZERO PUSH2 0x2BED JUMPI PUSH2 0x2BBE DUP2 PUSH2 0x2A8D JUMP JUMPDEST PUSH2 0x2BC7 DUP5 PUSH2 0x2AA2 JUMP JUMPDEST DUP2 ADD PUSH1 0x20 DUP6 LT ISZERO PUSH2 0x2BD6 JUMPI DUP2 SWAP1 POP JUMPDEST PUSH2 0x2BEA PUSH2 0x2BE2 DUP6 PUSH2 0x2AA2 JUMP JUMPDEST DUP4 ADD DUP3 PUSH2 0x2B89 JUMP JUMPDEST POP POP JUMPDEST POP POP POP JUMP JUMPDEST PUSH1 0x0 DUP3 DUP3 SHR SWAP1 POP SWAP3 SWAP2 POP POP JUMP JUMPDEST PUSH1 0x0 PUSH2 0x2C10 PUSH1 0x0 NOT DUP5 PUSH1 0x8 MUL PUSH2 0x2BF2 JUMP JUMPDEST NOT DUP1 DUP4 AND SWAP2 POP POP SWAP3 SWAP2 POP POP JUMP JUMPDEST PUSH1 0x0 PUSH2 0x2C29 DUP4 DUP4 PUSH2 0x2BFF JUMP JUMPDEST SWAP2 POP DUP3 PUSH1 0x2 MUL DUP3 OR SWAP1 POP SWAP3 SWAP2 POP POP JUMP JUMPDEST PUSH2 0x2C42 DUP3 PUSH2 0x1D43 JUMP JUMPDEST PUSH8 0xFFFFFFFFFFFFFFFF DUP2 GT ISZERO PUSH2 0x2C5B JUMPI PUSH2 0x2C5A PUSH2 0x1E95 JUMP JUMPDEST JUMPDEST PUSH2 0x2C65 DUP3 SLOAD PUSH2 0x23D2 JUMP JUMPDEST PUSH2 0x2C70 DUP3 DUP3 DUP6 PUSH2 0x2BAC JUMP JUMPDEST PUSH1 0x0 PUSH1 0x20 SWAP1 POP PUSH1 0x1F DUP4 GT PUSH1 0x1 DUP2 EQ PUSH2 0x2CA3 JUMPI PUSH1 0x0 DUP5 ISZERO PUSH2 0x2C91 JUMPI DUP3 DUP8 ADD MLOAD SWAP1 POP JUMPDEST PUSH2 0x2C9B DUP6 DUP3 PUSH2 0x2C1D JUMP JUMPDEST DUP7 SSTORE POP PUSH2 0x2D03 JUMP JUMPDEST PUSH1 0x1F NOT DUP5 AND PUSH2 0x2CB1 DUP7 PUSH2 0x2A8D JUMP JUMPDEST PUSH1 0x0 JUMPDEST DUP3 DUP2 LT ISZERO PUSH2 0x2CD9 JUMPI DUP5 DUP10 ADD MLOAD DUP3 SSTORE PUSH1 0x1 DUP3 ADD SWAP2 POP PUSH1 0x20 DUP6 ADD SWAP5 POP PUSH1 0x20 DUP2 ADD SWAP1 POP PUSH2 0x2CB4 JUMP JUMPDEST DUP7 DUP4 LT ISZERO PUSH2 0x2CF6 JUMPI DUP5 DUP10 ADD MLOAD PUSH2 0x2CF2 PUSH1 0x1F DUP10 AND DUP3 PUSH2 0x2BFF JUMP JUMPDEST DUP4 SSTORE POP JUMPDEST PUSH1 0x1 PUSH1 0x2 DUP9 MUL ADD DUP9 SSTORE POP POP POP JUMPDEST POP POP POP POP POP POP JUMP JUMPDEST PUSH32 0x5452414E534645525F4F574E4552534849500000000000000000000000000000 PUSH1 0x0 DUP3 ADD MSTORE POP JUMP JUMPDEST PUSH1 0x0 PUSH2 0x2D41 PUSH1 0x12 DUP4 PUSH2 0x22C5 JUMP JUMPDEST SWAP2 POP PUSH2 0x2D4C DUP3 PUSH2 0x2D0B JUMP JUMPDEST PUSH1 0x20 DUP3 ADD SWAP1 POP SWAP2 SWAP1 POP JUMP JUMPDEST PUSH1 0x0 PUSH1 0x60 DUP3 ADD SWAP1 POP DUP2 DUP2 SUB PUSH1 0x0 DUP4 ADD MSTORE PUSH2 0x2D70 DUP2 PUSH2 0x2D34 JUMP JUMPDEST SWAP1 POP PUSH2 0x2D7F PUSH1 0x20 DUP4 ADD DUP6 PUSH2 0x230F JUMP JUMPDEST PUSH2 0x2D8C PUSH1 0x40 DUP4 ADD DUP5 PUSH2 0x1C4E JUMP JUMPDEST SWAP4 SWAP3 POP POP POP JUMP JUMPDEST PUSH32 0x46696C6520616C72656164792072656769737465726564000000000000000000 PUSH1 0x0 DUP3 ADD MSTORE POP JUMP JUMPDEST PUSH1 0x0 PUSH2 0x2DC9 PUSH1 0x17 DUP4 PUSH2 0x22C5 JUMP JUMPDEST SWAP2 POP PUSH2 0x2DD4 DUP3 PUSH2 0x2D93 JUMP JUMPDEST PUSH1 0x20 DUP3 ADD SWAP1 POP SWAP2 SWAP1 POP JUMP JUMPDEST PUSH1 0x0 PUSH1 0x20 DUP3 ADD SWAP1 POP DUP2 DUP2 SUB PUSH1 0x0 DUP4 ADD MSTORE PUSH2 0x2DF8 DUP2 PUSH2 0x2DBC JUMP JUMPDEST SWAP1 POP SWAP2 SWAP1 POP JUMP JUMPDEST PUSH32 0x4349442063616E6E6F7420626520656D70747900000000000000000000000000 PUSH1 0x0 DUP3 ADD MSTORE POP JUMP JUMPDEST PUSH1 0x0 PUSH2 0x2E35 PUSH1 0x13 DUP4 PUSH2 0x22C5 JUMP JUMPDEST SWAP2 POP PUSH2 0x2E40 DUP3 PUSH2 0x2DFF JUMP JUMPDEST PUSH1 0x20 DUP3 ADD SWAP1 POP SWAP2 SWAP1 POP JUMP JUMPDEST PUSH1 0x0 PUSH1 0x20 DUP3 ADD SWAP1 POP DUP2 DUP2 SUB PUSH1 0x0 DUP4 ADD MSTORE PUSH2 0x2E64 DUP2 PUSH2 0x2E28 JUMP JUMPDEST SWAP1 POP SWAP2 SWAP1 POP JUMP JUMPDEST PUSH32 0x486173682063616E6E6F7420626520656D707479000000000000000000000000 PUSH1 0x0 DUP3 ADD MSTORE POP JUMP JUMPDEST PUSH1 0x0 PUSH2 0x2EA1 PUSH1 0x14 DUP4 PUSH2 0x22C5 JUMP JUMPDEST SWAP2 POP PUSH2 0x2EAC DUP3 PUSH2 0x2E6B JUMP JUMPDEST PUSH1 0x20 DUP3 ADD SWAP1 POP SWAP2 SWAP1 POP JUMP JUMPDEST PUSH1 0x0 PUSH1 0x20 DUP3 ADD SWAP1 POP DUP2 DUP2 SUB PUSH1 0x0 DUP4 ADD MSTORE PUSH2 0x2ED0 DUP2 PUSH2 0x2E94 JUMP JUMPDEST SWAP1 POP SWAP2 SWAP1 POP JUMP JUMPDEST PUSH1 0x0 PUSH1 0x60 DUP3 ADD SWAP1 POP DUP2 DUP2 SUB PUSH1 0x0 DUP4 ADD MSTORE PUSH2 0x2EF1 DUP2 DUP7 PUSH2 0x22D6 JUMP JUMPDEST SWAP1 POP DUP2 DUP2 SUB PUSH1 0x20 DUP4 ADD MSTORE PUSH2 0x2F05 DUP2 DUP6 PUSH2 0x22D6 JUMP JUMPDEST SWAP1 POP PUSH2 0x2F14 PUSH1 0x40 DUP4 ADD DUP5 PUSH2 0x231E JUMP JUMPDEST SWAP5 SWAP4 POP POP POP POP JUMP JUMPDEST PUSH32 0x5245474953544552000000000000000000000000000000000000000000000000 PUSH1 0x0 DUP3 ADD MSTORE POP JUMP JUMPDEST PUSH1 0x0 PUSH2 0x2F52 PUSH1 0x8 DUP4 PUSH2 0x22C5 JUMP JUMPDEST SWAP2 POP PUSH2 0x2F5D DUP3 PUSH2 0x2F1C JUMP JUMPDEST PUSH1 0x20 DUP3 ADD SWAP1 POP SWAP2 SWAP1 POP JUMP JUMPDEST PUSH1 0x0 PUSH1 0x60 DUP3 ADD SWAP1 POP DUP2 DUP2 SUB PUSH1 0x0 DUP4 ADD MSTORE PUSH2 0x2F81 DUP2 PUSH2 0x2F45 JUMP JUMPDEST SWAP1 POP PUSH2 0x2F90 PUSH1 0x20 DUP4 ADD DUP6 PUSH2 0x230F JUMP JUMPDEST PUSH2 0x2F9D PUSH1 0x40 DUP4 ADD DUP5 PUSH2 0x1C4E JUMP JUMPDEST SWAP4 SWAP3 POP POP POP JUMP JUMPDEST PUSH1 0x0 PUSH1 0x40 DUP3 ADD SWAP1 POP PUSH2 0x2FB9 PUSH1 0x0 DUP4 ADD DUP6 PUSH2 0x230F JUMP JUMPDEST PUSH2 0x2FC6 PUSH1 0x20 DUP4 ADD DUP5 PUSH2 0x230F JUMP JUMPDEST SWAP4 SWAP3 POP POP POP JUMP JUMPDEST PUSH32 0x4752414E545F4143434553530000000000000000000000000000000000000000 PUSH1 0x0 DUP3 ADD MSTORE POP JUMP JUMPDEST PUSH1 0x0 PUSH2 0x3003 PUSH1 0xC DUP4 PUSH2 0x22C5 JUMP JUMPDEST SWAP2 POP PUSH2 0x300E DUP3 PUSH2 0x2FCD JUMP JUMPDEST PUSH1 0x20 DUP3 ADD SWAP1 POP SWAP2 SWAP1 POP JUMP JUMPDEST PUSH1 0x0 PUSH1 0x60 DUP3 ADD SWAP1 POP DUP2 DUP2 SUB PUSH1 0x0 DUP4 ADD MSTORE PUSH2 0x3032 DUP2 PUSH2 0x2FF6 JUMP JUMPDEST SWAP1 POP PUSH2 0x3041 PUSH1 0x20 DUP4 ADD DUP6 PUSH2 0x230F JUMP JUMPDEST PUSH2 0x304E PUSH1 0x40 DUP4 ADD DUP5 PUSH2 0x1C4E JUMP JUMPDEST SWAP4 SWAP3 POP POP POP JUMP JUMPDEST PUSH32 0x41636365737320776173206E6F74206772616E74656400000000000000000000 PUSH1 0x0 DUP3 ADD MSTORE POP JUMP JUMPDEST PUSH1 0x0 PUSH2 0x308B PUSH1 0x16 DUP4 PUSH2 0x22C5 JUMP JUMPDEST SWAP2 POP PUSH2 0x3096 DUP3 PUSH2 0x3055 JUMP JUMPDEST PUSH1 0x20 DUP3 ADD SWAP1 POP SWAP2 SWAP1 POP JUMP JUMPDEST PUSH1 0x0 PUSH1 0x20 DUP3 ADD SWAP1 POP DUP2 DUP2 SUB PUSH1 0x0 DUP4 ADD MSTORE PUSH2 0x30BA DUP2 PUSH2 0x307E JUMP JUMPDEST SWAP1 POP SWAP2 SWAP1 POP JUMP JUMPDEST PUSH32 0x5245564F4B455F41434345535300000000000000000000000000000000000000 PUSH1 0x0 DUP3 ADD MSTORE POP JUMP JUMPDEST PUSH1 0x0 PUSH2 0x30F7 PUSH1 0xD DUP4 PUSH2 0x22C5 JUMP JUMPDEST SWAP2 POP PUSH2 0x3102 DUP3 PUSH2 0x30C1 JUMP JUMPDEST PUSH1 0x20 DUP3 ADD SWAP1 POP SWAP2 SWAP1 POP JUMP JUMPDEST PUSH1 0x0 PUSH1 0x60 DUP3 ADD SWAP1 POP DUP2 DUP2 SUB PUSH1 0x0 DUP4 ADD MSTORE PUSH2 0x3126 DUP2 PUSH2 0x30EA JUMP JUMPDEST SWAP1 POP PUSH2 0x3135 PUSH1 0x20 DUP4 ADD DUP6 PUSH2 0x230F JUMP JUMPDEST PUSH2 0x3142 PUSH1 0x40 DUP4 ADD DUP5 PUSH2 0x1C4E JUMP JUMPDEST SWAP4 SWAP3 POP POP POP JUMP INVALID LOG2 PUSH5 0x6970667358 0x22 SLT KECCAK256 ORIGIN 0xE7 0xD5 0x4C MOD MUL 0xA6 LOG3 0xE2 SWAP14 SWAP8 CREATE2 0xB3 CALLDATACOPY PUSH5 0xB1DA744533 LOG3 0xBA PUSH15 0xC25D9771C76549124764736F6C6343 STOP ADDMOD XOR STOP CALLER "},"methodIdentifiers":{"contractOwner()":"ce606ee0","getFile(string)":"e0876aa8","getUserOwnedFiles(address)":"638442ba","grantAccess(string,address,uint256,uint256)":"d6807bef","registerFile(string,string,string,uint8,string)":"d545d563","revokeAccess(string,address)":"dfe0b5fe","setEmergencyLock(bool)":"9f75c9e0","systemEmergencyLock()":"0054d32f","transferOwnership(string,address)":"c0e793c2","verifyAccess(string,address)":"878b6922"}}}}}