{
  "_format": "hh-sol-artifact-1",
  "contractName": "DecentralizedID",
  "sourceName": "contracts/DecentralizedID.sol",
  "abi": [
    {
      "anonymous": false,
      "inputs": [
        {
          "indexed": true,
          "internalType": "address",
          "name": "owner",
          "type": "address"
        },
        {
          "indexed": false,
          "internalType": "string",
          "name": "credentialsHash",
          "type": "string"
        }
      ],
      "name": "CredentialsUpdated",
      "type": "event"
    },
    {
      "anonymous": false,
      "inputs": [
        {
          "indexed": true,
          "internalType": "address",
          "name": "owner",
          "type": "address"
        },
        {
          "indexed": false,
          "internalType": "string",
          "name": "didUri",
          "type": "string"
        }
      ],
      "name": "DIDDeactivated",
      "type": "event"
    },
    {
      "anonymous": false,
      "inputs": [
        {
          "indexed": true,
          "internalType": "address",
          "name": "owner",
          "type": "address"
        },
        {
          "indexed": false,
          "internalType": "string",
          "name": "didUri",
          "type": "string"
        },
        {
          "indexed": false,
          "internalType": "string",
          "name": "publicKey",
          "type": "string"
        }
      ],
      "name": "DIDRegistered",
      "type": "event"
    },
    {
      "inputs": [],
      "name": "deactivateDID",
      "outputs": [],
      "stateMutability": "nonpayable",
      "type": "function"
    },
    {
      "inputs": [
        {
          "internalType": "address",
          "name": "owner",
          "type": "address"
        }
      ],
      "name": "getDID",
      "outputs": [
        {
          "internalType": "string",
          "name": "didUri",
          "type": "string"
        },
        {
          "internalType": "string",
          "name": "publicKey",
          "type": "string"
        },
        {
          "internalType": "string",
          "name": "credentialsHash",
          "type": "string"
        },
        {
          "internalType": "uint256",
          "name": "createdAt",
          "type": "uint256"
        },
        {
          "internalType": "bool",
          "name": "active",
          "type": "bool"
        }
      ],
      "stateMutability": "view",
      "type": "function"
    },
    {
      "inputs": [
        {
          "internalType": "string",
          "name": "didUri",
          "type": "string"
        },
        {
          "internalType": "string",
          "name": "publicKey",
          "type": "string"
        }
      ],
      "name": "registerDID",
      "outputs": [],
      "stateMutability": "nonpayable",
      "type": "function"
    },
    {
      "inputs": [
        {
          "internalType": "string",
          "name": "didUri",
          "type": "string"
        }
      ],
      "name": "resolveDID",
      "outputs": [
        {
          "internalType": "address",
          "name": "",
          "type": "address"
        }
      ],
      "stateMutability": "view",
      "type": "function"
    },
    {
      "inputs": [
        {
          "internalType": "string",
          "name": "credentialsHash",
          "type": "string"
        }
      ],
      "name": "updateCredentials",
      "outputs": [],
      "stateMutability": "nonpayable",
      "type": "function"
    }
  ],
  "bytecode": "0x608060405234801561001057600080fd5b506115f3806100206000396000f3fe608060405234801561001057600080fd5b50600436106100575760003560e01c806367406e1b1461005c578063767bc20e146100785780637e5c39e9146100825780639d7f0bbf1461009e578063f64e30b0146100ce575b600080fd5b61007660048036038101906100719190610b76565b610102565b005b61008061024c565b005b61009c60048036038101906100979190610bbf565b6103a3565b005b6100b860048036038101906100b39190610b76565b6106bb565b6040516100c59190610c78565b60405180910390f35b6100e860048036038101906100e39190610cbf565b610777565b6040516100f9959493929190610d9f565b60405180910390f35b60008060003373ffffffffffffffffffffffffffffffffffffffff1673ffffffffffffffffffffffffffffffffffffffff1681526020019081526020016000209050600081600001805461015590610e36565b905011610197576040517f08c379a000000000000000000000000000000000000000000000000000000000815260040161018e90610eb3565b60405180910390fd5b8060040160009054906101000a900460ff166101e8576040517f08c379a00000000000000000000000000000000000000000000000000000000081526004016101df90610f1f565b60405180910390fd5b818160020190816101f991906110eb565b503373ffffffffffffffffffffffffffffffffffffffff167f4f464cb43d38e5d505ccd3413401857095f787adf301f96cdc71b6b80868da748360405161024091906111bd565b60405180910390a25050565b60008060003373ffffffffffffffffffffffffffffffffffffffff1673ffffffffffffffffffffffffffffffffffffffff1681526020019081526020016000209050600081600001805461029f90610e36565b9050116102e1576040517f08c379a00000000000000000000000000000000000000000000000000000000081526004016102d890610eb3565b60405180910390fd5b8060040160009054906101000a900460ff16610332576040517f08c379a00000000000000000000000000000000000000000000000000000000081526004016103299061122b565b60405180910390fd5b60008160040160006101000a81548160ff0219169083151502179055503373ffffffffffffffffffffffffffffffffffffffff167f65d91642721b6dbffbe8982d5f2cea705fb4d54669bdc23f7924705870c3caac8260000160405161039891906112cf565b60405180910390a250565b60008251116103e7576040517f08c379a00000000000000000000000000000000000000000000000000000000081526004016103de9061133d565b60405180910390fd5b60008060003373ffffffffffffffffffffffffffffffffffffffff1673ffffffffffffffffffffffffffffffffffffffff168152602001908152602001600020600001805461043590610e36565b905014610477576040517f08c379a000000000000000000000000000000000000000000000000000000000815260040161046e906113cf565b60405180910390fd5b600073ffffffffffffffffffffffffffffffffffffffff1660018360405161049f919061142b565b908152602001604051809103902060009054906101000a900473ffffffffffffffffffffffffffffffffffffffff1673ffffffffffffffffffffffffffffffffffffffff1614610524576040517f08c379a000000000000000000000000000000000000000000000000000000000815260040161051b9061148e565b60405180910390fd5b6040518060a00160405280838152602001828152602001604051806020016040528060008152508152602001428152602001600115158152506000803373ffffffffffffffffffffffffffffffffffffffff1673ffffffffffffffffffffffffffffffffffffffff16815260200190815260200160002060008201518160000190816105b091906110eb565b5060208201518160010190816105c691906110eb565b5060408201518160020190816105dc91906110eb565b506060820151816003015560808201518160040160006101000a81548160ff0219169083151502179055509050503360018360405161061b919061142b565b908152602001604051809103902060006101000a81548173ffffffffffffffffffffffffffffffffffffffff021916908373ffffffffffffffffffffffffffffffffffffffff1602179055503373ffffffffffffffffffffffffffffffffffffffff167f9f9e551d0f9d37cbfd9f18d5bffe17f0ab26bf932ac76ad9c6b2f573cae3dff283836040516106af9291906114ae565b60405180910390a25050565b6000806001836040516106ce919061142b565b908152602001604051809103902060009054906101000a900473ffffffffffffffffffffffffffffffffffffffff169050600073ffffffffffffffffffffffffffffffffffffffff168173ffffffffffffffffffffffffffffffffffffffff160361076e576040517f08c379a000000000000000000000000000000000000000000000000000000000815260040161076590611531565b60405180910390fd5b80915050919050565b606080606060008060008060008873ffffffffffffffffffffffffffffffffffffffff1673ffffffffffffffffffffffffffffffffffffffff1681526020019081526020016000206040518060a00160405290816000820180546107da90610e36565b80601f016020809104026020016040519081016040528092919081815260200182805461080690610e36565b80156108535780601f1061082857610100808354040283529160200191610853565b820191906000526020600020905b81548152906001019060200180831161083657829003601f168201915b5050505050815260200160018201805461086c90610e36565b80601f016020809104026020016040519081016040528092919081815260200182805461089890610e36565b80156108e55780601f106108ba576101008083540402835291602001916108e5565b820191906000526020600020905b8154815290600101906020018083116108c857829003601f168201915b505050505081526020016002820180546108fe90610e36565b80601f016020809104026020016040519081016040528092919081815260200182805461092a90610e36565b80156109775780601f1061094c57610100808354040283529160200191610977565b820191906000526020600020905b81548152906001019060200180831161095a57829003601f168201915b50505050508152602001600382015481526020016004820160009054906101000a900460ff16151515158152505090506000816000015151116109ef576040517f08c379a00000000000000000000000000000000000000000000000000000000081526004016109e69061159d565b60405180910390fd5b80600001518160200151826040015183606001518460800151955095509550955095505091939590929450565b6000604051905090565b600080fd5b600080fd5b600080fd5b600080fd5b6000601f19601f8301169050919050565b7f4e487b7100000000000000000000000000000000000000000000000000000000600052604160045260246000fd5b610a8382610a3a565b810181811067ffffffffffffffff82111715610aa257610aa1610a4b565b5b80604052505050565b6000610ab5610a1c565b9050610ac18282610a7a565b919050565b600067ffffffffffffffff821115610ae157610ae0610a4b565b5b610aea82610a3a565b9050602081019050919050565b82818337600083830152505050565b6000610b19610b1484610ac6565b610aab565b905082815260208101848484011115610b3557610b34610a35565b5b610b40848285610af7565b509392505050565b600082601f830112610b5d57610b5c610a30565b5b8135610b6d848260208601610b06565b91505092915050565b600060208284031215610b8c57610b8b610a26565b5b600082013567ffffffffffffffff811115610baa57610ba9610a2b565b5b610bb684828501610b48565b91505092915050565b60008060408385031215610bd657610bd5610a26565b5b600083013567ffffffffffffffff811115610bf457610bf3610a2b565b5b610c0085828601610b48565b925050602083013567ffffffffffffffff811115610c2157610c20610a2b565b5b610c2d85828601610b48565b9150509250929050565b600073ffffffffffffffffffffffffffffffffffffffff82169050919050565b6000610c6282610c37565b9050919050565b610c7281610c57565b82525050565b6000602082019050610c8d6000830184610c69565b92915050565b610c9c81610c57565b8114610ca757600080fd5b50565b600081359050610cb981610c93565b92915050565b600060208284031215610cd557610cd4610a26565b5b6000610ce384828501610caa565b91505092915050565b600081519050919050565b600082825260208201905092915050565b60005b83811015610d26578082015181840152602081019050610d0b565b60008484015250505050565b6000610d3d82610cec565b610d478185610cf7565b9350610d57818560208601610d08565b610d6081610a3a565b840191505092915050565b6000819050919050565b610d7e81610d6b565b82525050565b60008115159050919050565b610d9981610d84565b82525050565b600060a0820190508181036000830152610db98188610d32565b90508181036020830152610dcd8187610d32565b90508181036040830152610de18186610d32565b9050610df06060830185610d75565b610dfd6080830184610d90565b9695505050505050565b7f4e487b7100000000000000000000000000000000000000000000000000000000600052602260045260246000fd5b60006002820490506001821680610e4e57607f821691505b602082108103610e6157610e60610e07565b5b50919050565b7f444944206e6f7420726567697374657265640000000000000000000000000000600082015250565b6000610e9d601283610cf7565b9150610ea882610e67565b602082019050919050565b60006020820190508181036000830152610ecc81610e90565b9050919050565b7f44494420697320696e6163746976650000000000000000000000000000000000600082015250565b6000610f09600f83610cf7565b9150610f1482610ed3565b602082019050919050565b60006020820190508181036000830152610f3881610efc565b9050919050565b60008190508160005260206000209050919050565b60006020601f8301049050919050565b600082821b905092915050565b600060088302610fa17fffffffffffffffffffffffffffffffffffffffffffffffffffffffffffffffff82610f64565b610fab8683610f64565b95508019841693508086168417925050509392505050565b6000819050919050565b6000610fe8610fe3610fde84610d6b565b610fc3565b610d6b565b9050919050565b6000819050919050565b61100283610fcd565b61101661100e82610fef565b848454610f71565b825550505050565b600090565b61102b61101e565b611036818484610ff9565b505050565b5b8181101561105a5761104f600082611023565b60018101905061103c565b5050565b601f82111561109f5761107081610f3f565b61107984610f54565b81016020851015611088578190505b61109c61109485610f54565b83018261103b565b50505b505050565b600082821c905092915050565b60006110c2600019846008026110a4565b1980831691505092915050565b60006110db83836110b1565b9150826002028217905092915050565b6110f482610cec565b67ffffffffffffffff81111561110d5761110c610a4b565b5b6111178254610e36565b61112282828561105e565b600060209050601f8311600181146111555760008415611143578287015190505b61114d85826110cf565b8655506111b5565b601f19841661116386610f3f565b60005b8281101561118b57848901518255600182019150602085019450602081019050611166565b868310156111a857848901516111a4601f8916826110b1565b8355505b6001600288020188555050505b505050505050565b600060208201905081810360008301526111d78184610d32565b905092915050565b7f44494420616c7265616479206465616374697661746564000000000000000000600082015250565b6000611215601783610cf7565b9150611220826111df565b602082019050919050565b6000602082019050818103600083015261124481611208565b9050919050565b6000815461125881610e36565b6112628186610cf7565b9450600182166000811461127d5760018114611293576112c6565b60ff1983168652811515602002860193506112c6565b61129c85610f3f565b60005b838110156112be5781548189015260018201915060208101905061129f565b808801955050505b50505092915050565b600060208201905081810360008301526112e9818461124b565b905092915050565b7f444944205552492063616e6e6f7420626520656d707479000000000000000000600082015250565b6000611327601783610cf7565b9150611332826112f1565b602082019050919050565b600060208201905081810360008301526113568161131a565b9050919050565b7f44494420616c7265616479207265676973746572656420666f7220746869732060008201527f6164647265737300000000000000000000000000000000000000000000000000602082015250565b60006113b9602783610cf7565b91506113c48261135d565b604082019050919050565b600060208201905081810360008301526113e8816113ac565b9050919050565b600081905092915050565b600061140582610cec565b61140f81856113ef565b935061141f818560208601610d08565b80840191505092915050565b600061143782846113fa565b915081905092915050565b7f4449442055524920616c726561647920696e2075736500000000000000000000600082015250565b6000611478601683610cf7565b915061148382611442565b602082019050919050565b600060208201905081810360008301526114a78161146b565b9050919050565b600060408201905081810360008301526114c88185610d32565b905081810360208301526114dc8184610d32565b90509392505050565b7f4449442055524920636f756c64206e6f74206265207265736f6c766564000000600082015250565b600061151b601d83610cf7565b9150611526826114e5565b602082019050919050565b6000602082019050818103600083015261154a8161150e565b9050919050565b7f444944206e6f7420666f756e6400000000000000000000000000000000000000600082015250565b6000611587600d83610cf7565b915061159282611551565b602082019050919050565b600060208201905081810360008301526115b68161157a565b905091905056fea2646970667358221220f84cedace0fdf3748d9b0b26e35704245ae4ede5f46e44b774b7ca5fb3eb2b7564736f6c63430008180033",
  "linkReferences": {},
  "deployedLinkReferences": {}
}